:020000040800F2
:100000006051002029030008232B0008BD250008AB
:10001000212B000813060008F13900080000000039
:10002000000000000000000000000000690200085D
:10003000D106000800000000C5020008D52F000806
:100040004303000843030008430300084303000878
:10005000430300084303000843030008D5060008D3
:10006000110700084D07000889070008430300082E
:100070004303000843030008430300084303000848
:100080004303000843030008430300084303000838
:100090004303000843030008430300084303000828
:1000A00043030008A5300008430300084303000889
:1000B00043030008B1300008BD30000843030008C6
:1000C00043030008430300084303000843030008F8
:1000D00043030008E5390008430300084303000810
:1000E000430300084303000843030008C930000825
:1000F000E5300008430300084303000843030008F9
:1001000043030008430300084303000843030008B7
:1001100043030008430300084303000843030008A7
:1001200043030008430300081506000843030008C2
:100130004303000843030008430300084303000887
:100140004303000843030008430300084303000877
:100150004303000843030008210600084303000886
:100160004303000843030008430300084303000857
:100170004303000843030008430300080000000095
:10018000430300084303000800F002F800F05CF8A5
:100190000AA090E8000C82448344AAF10107DA45E2
:1001A00001D100F051F8AFF2090EBAE80F0013F0D8
:1001B000010F18BFFB1A43F00103184768510000F4
:1001C000885100000A444FF0000C10F8013B13F076
:1001D000070408BF10F8014B1D1108BF10F8015BA0
:1001E000641E05D010F8016B641E01F8016BF9D193
:1001F00013F0080F1EBF10F8014BAD1C0C1B09D1EA
:100200006D1E58BF01F801CBFAD505E014F8016B5B
:1002100001F8016B6D1EF9D59142D6D370470000ED
:100220000023002400250026103A28BF78C1FBD8FF
:10023000520728BF30C148BF0B6070471FB505F09B
:100240000BF81FBD10B510BD00F0A6F91146FFF761
:10025000F5FF03F0DEFB00F0C4F903B4FFF7F2FF93
:1002600003BC00F0CBF900002C4B19680868B0E81B
:10027000F04F80F30988BFF36F8F4FF0000080F3D9
:10028000118870470000000008480068006880F38B
:1002900008884FF0000080F3148862B661B6BFF39F
:1002A0004F8FBFF36F8F00DF00BF00BF08ED00E08E
:1002B000DFF80C00016841F470010160704700BF75
:1002C00088ED00E0EFF30980BFF36F8F134B1A68DE
:1002D0001EF0100F08BF20ED108A20E9F04F1060CB
:1002E00009B44FF0500080F31188BFF34F8FBFF374
:1002F0006F8F04F071FA4FF0000080F3118809BC91
:1003000019680868B0E8F04F1EF0100F08BFB0EC95
:10031000108A80F30988BFF36F8F70472800002090
:10032000EFF30580704700000948804709480047FF
:10033000FEE7FEE7FEE7FEE7FEE7FEE7FEE7FEE795
:10034000FEE7FEE704480549054A064B70470000F2
:100350009530000889010008604B002060510020A2
:10036000604D0020604D002053EA020C00F06980CF
:100370002DE9F04B4FF00006002B1FBFB3FA83F5B9
:1003800003FA05F424FA05F65E4012BF1643B2FAEA
:1003900082F502FA05F4C5F120051EBF22FA05FC1C
:1003A00044EA0C04203556EA044C4FEA144418BFC2
:1003B000641C4FF000084FF00009904271EB030CF1
:1003C00039D3002919BFB1FA81F701FA07F6B0FA5B
:1003D00080F700FA07F6C7F120071EBF20FA07FCD6
:1003E00046EA0C062037B6FBF4FCA7EB0507103FE6
:1003F00007F01F0BCBF120060CFA0BFB2CFA06F6CC
:1004000044BFB3460026202FA4BF5E464FF0000B2A
:100410005BEA060C08BF4FF0010B19EB0B09ABFBB5
:10042000027C48EB0608C01B06FB02CC0BFB03CC8E
:1004300071EB0C01C1E70B46024641464846BDE858
:10044000F08B13B54FF000004FF00001AFF30080C8
:10045000BDE81C407047032A40F2308010F0030CC6
:1004600000F0158011F8013BBCF1020F624498BF07
:1004700011F801CB00F8013B38BF11F8013BA2F1A4
:10048000040298BF00F801CB38BF00F8013B11F01F
:10049000030300F02580083AC0F0088051F8043BBF
:1004A000083A51F804CBA0E80810F5E7121D5CBF2C
:1004B00051F8043B40F8043BAFF30080D20724BF5F
:1004C00011F8013B11F801CB48BF11F8012B24BFF3
:1004D00000F8013B00F801CB48BF00F8012B704742
:1004E00010B5203AC0F00B80B1E81850203AA0E8CF
:1004F0001850B1E81850A0E81850BFF4F5AF5FEA03
:10050000027C24BFB1E81850A0E8185044BF18C9B5
:1005100018C0BDE810405FEA827C24BF51F8043B5C
:1005200040F8043B08BF7047D20728BF31F8023BB0
:1005300048BF11F8012B28BF20F8023B48BF00F844
:10054000012B70474FF0000200B5134694469646C3
:10055000203922BFA0E80C50A0E80C50B1F12001D6
:10056000BFF4F7AF090728BFA0E80C5048BF0CC084
:100570005DF804EB890028BF40F8042B08BF7047E2
:1005800048BF20F8022B11F0804F18BF00F8012B54
:100590007047704770477047754600F02BF8AE46BD
:1005A00005006946534620F00700854618B020B57F
:1005B000FFF7C8FEBDE820404FF000064FF00007EF
:1005C0004FF000084FF0000B21F00701AC46ACE8FB
:1005D000C009ACE8C009ACE8C009ACE8C0098D4668
:1005E000704710B50446AFF300802046BDE81040C8
:1005F000FFF733BE00487047FC4A0020014918202D
:10060000ABBEFEE72600020070470121084602F05B
:1006100051BBFEE7014800F03FB90000640900202B
:10062000014800F039B90000C4090020016818230E
:10063000CAB2103AB2FBF3F2054B6FF30901032A79
:100640009B5CC36500D9091D8165084670470000A1
:10065000D452000810B5014600208B698A6A4FF019
:10066000C07453B1B3F5005F15D072B1012A0CD03C
:10067000022A0AD0032A09D104E01AB1012A06D0BD
:10068000022A03D1C96AC90100D5012010BDC96A77
:10069000A142FAD010BD002AF7D0012AF2D0022AD6
:1006A000F3D0032AF3D010BD30B50468256825F4D3
:1006B00080252560046863608368402B036803D04D
:1006C00099600068C26030BD9A600068C16030BD4A
:1006D0007047000070B50B4C206880070FD50225CD
:1006E00025600A2000F04AFA0221074800F050FB7A
:1006F000064928B1086800B180472560206870BDB0
:100700000869F8E7143C014000100240380100205D
:1007100070B50B4C206840070FD5042525600A20D2
:1007200000F02CFA0421074800F032FB064928B1FA
:10073000486800B180472560206870BD4869F8E7C7
:10074000143C0140001002403801002070B50B4CF1
:10075000206800070FD5082525600A2000F00EFA52
:100760000821074800F014FB064928B1886800B149
:1007700080472560206870BD8869F8E7143C014017
:10078000001002403801002070B50B4C2068C006F4
:100790000FD5102525600A2000F0F0F91021074838
:1007A00000F0F6FA064928B1C86800B18047256014
:1007B000206870BDC869F8E7143C01400010024091
:1007C0003801002072B6FEE700EB400101EBC000EB
:1007D000024901EB800010F9030C7047B4000020BF
:1007E0002DE9F0410446876D00F0E4FA064694F8DE
:1007F00035000025022806D08020606584F834503A
:100800000120BDE8F0812068016821F01601016037
:100810002068416921F080014161206C08B9A06C19
:1008200020B12068016821F008010160206801689A
:1008300021F0010101600CE000F0BCFA801B0528EA
:1008400007D920206065032084F8350084F83450EF
:10085000D7E720680068C007EED194F85C103F200D
:100860008840B860012084F8350084F834500020B6
:10087000C7E790F83510022903D080214165012097
:100880007047052180F835100068016821F00101EA
:1008900001600020704700002DE9F84304464FF046
:1008A0000009CDF8009063484FF41651A56D00681B
:1008B000B0FBF1F72E6894F85C10082000FA01F103
:1008C00031420FD021680A6852070BD50A6822F01E
:1008D00004020A6094F85C108840A860606D40F0E3
:1008E0000100606594F85C104FF0010808FA01F00F
:1008F000304208D021684969090604D5A860606DB6
:1009000040F00200606594F85C100420884030429A
:1009100008D021680968890704D5A860606D40F097
:100920000400606594F85C1010208840304218D0B4
:1009300021680968090714D5A8602068016849037F
:1009400004D50068000308D5A16C07E00168C9055B
:1009500003D4016821F008010160216C09B120462F
:10096000884794F85C1020208840304231D02168BC
:100970000968C9062DD5A86094F8350005282068B7
:10098000016806D0490347D5006800031DD4616C97
:100990001CE021F0160101602068416921F080010E
:1009A0004161206C08B9A06C20B12068016821F079
:1009B0000801016094F85C103F208840A86084F82A
:1009C000358084F83490216D1FE0E16B09B1204639
:1009D0008847606D00282BD0606DC00714D00520BB
:1009E00084F835002068016821F001010160009859
:1009F000401C0090B84203D820680068C007F6D1B8
:100A000084F8358084F83490E16C002910D001B06E
:100A10002046BDE8F04308470168C905D5D4016800
:100A200021F01001016084F8358084F83490CCE71F
:100A3000BDE8F883240000202DE9F041044600F0D1
:100A4000B9F906465CB1022084F83500002584F827
:100A500034502068016821F0010101600DE001209F
:100A6000BDE8F08100F0A6F9801B052805D92020FB
:100A70006065032084F83500F2E720680068C0074D
:100A8000F0D12268116820480140D4E901031843DD
:100A9000D4E903363343184363691843A369184301
:100AA000E3691843236A18430843616A042903D1A0
:100AB000D4E90B1319430843106020684069666A43
:100AC00020F0070130460E43012704280CD1A06A0C
:100AD0000643E06A40B12046FFF7BCFD20B140204C
:100AE000606584F83570BAE7206846612046FFF7F4
:100AF0009DFD94F85C203F2191408160656584F8FC
:100B000035700020ACE700003F8010F02DE9F04187
:100B10000446866D90F83400002501280DD0012090
:100B200084F8340094F835700020012F07D084F841
:100B3000340002252846BDE8F0810220FBE70227A9
:100B400084F8357060652046FFF7AEFD94F85C10C0
:100B50003F208840B0602068016841F016010160C4
:100B6000206C20B12068016841F008010160206814
:100B7000016841F001010160DCE7000070B5044646
:100B800000F018F90546601C02D0044800780444BF
:100B900000F010F9401BA042FAD370BD18000020ED
:100BA0002DE9F84FDFF8BCA10022012503264FF004
:100BB0000F090AF1040BAAF1040E00BF0B6805FA35
:100BC00002F42340A34270D10F7907F00307012FED
:100BD00001D0022F16D187684FEA420806FA08FCB6
:100BE00027EA0C07D1F80CC00CFA08FC4CEA070CF9
:100BF000C0F808C04768A7430C79C4F300149440B8
:100C00003C4344600C79E443A4070AD0C4684FEA2B
:100C1000420C06FA0CF7BC438F6807FA0CF727431F
:100C2000C7600C7904F00304022C12D1D40800EB45
:100C3000840CDCF820405707FF0E09FA07F824EA75
:100C40000804D1F8108008FA07F848EA0408CCF83C
:100C5000208004684FEA420C06FA0CF7BC430F7977
:100C600007F0030707FA0CF7274307604C6814F4F2
:100C7000403F70D03C4C276847F480472760246889
:100C800022F0030704F480440094384C07EB040C72
:100C9000DCF8084897074FEA177809FA08F7BC43C9
:100CA000334FB84202D1002724E054E0314FB8421C
:100CB00001D101271EE0304FB84201D1022719E0CF
:100CC0002E4FB84201D1032714E02D4FB84201D175
:100CD00004270FE02B4FB84201D105270AE02A4F25
:100CE000B84201D1062705E0284FB84201D10727B5
:100CF00000E0082707FA08F72743CCF80878DAF865
:100D000000405746D1F804C09C435FEACC2C00D584
:100D10001C433C60DBF800405F46D1F804C09C43B4
:100D20005FEA8C2C00D51C433C60DEF8004077461F
:100D3000D1F804C09C435FEA8C3C00D51C433C6066
:100D4000084F083F3C68D1F804C09C435FEACC3CA4
:100D500000D51C433C60521C102AFFF42FAFBDE8A5
:100D6000F88F0000083C0140443802400030014048
:100D7000000002400004024000080240000C024053
:100D8000001002400014024000180240001C024003
:100D90000069084000D001207047426921EA02033F
:100DA0000A4043EA0241816170470AB1816170479C
:100DB0000904FBE701488068704700001800002024
:100DC0000248816802781144816070471800002051
:100DD0000B4810B5016841F400710160016841F4ED
:100DE00080610160016841F480710160032000F0BE
:100DF0008DF80F2000F006F800F03EF8002010BD3E
:100E0000003C024010B5014688B00022192000F0D5
:100E10005DF8192000F04CF813480024016841F0F7
:100E200001010160006805A900F001000690684614
:100E300000F018F900F046F90C494000B0FBF1F160
:100E40000C480B4A491E026040F2E732C0E9032415
:100E5000C0E9011400F0A2FB10B1012008B010BDE0
:100E6000044800F021FCF9E74438024040420F00FA
:100E700000000140240A00200C4882B0016841F4BF
:100E800080410160006800F4804000900748001F26
:100E9000016841F0805101600068002200F080503C
:100EA00000900F21901E02B000F010B844380240AC
:100EB000002809DB00F01F02012191404009800059
:100EC00000F1E020C0F8001170470000F0B40E4BB4
:100ED0001B680C46C3F30223C3F10705042D00D998
:100EE0000425191D072901D2002300E0DB1E01267D
:100EF00006FA05F1491E214099409E40761E164093
:100F00003143F0BC02F075BD0CED00E0064900F085
:100F1000070208684FF6FF03184040EA0220034A20
:100F200010430860704700000CED00E00000FA0577
:100F30002DE9F0470E46050065D0DFF81481D8F89A
:100F40000000F7B200F00700B04207D288F8007046
:100F5000D8F8000000F00700B04254D128683D4C9A
:100F6000810712D5400703D5206840F4E050206087
:100F70002878000703D5206840F46040206020688E
:100F8000A96820F0F000084320602878C0072DD021
:100F9000304968680839012812D0022813D0032884
:100FA00011D00968890700292DDA216821F0030191
:100FB00001432160FFF7FEFE814641F2883A0EE0D0
:100FC00009688903EFE709688901ECE7FFF7F2FE9A
:100FD000A0EB0901514502D90320BDE8F087206844
:100FE000696800F00C00B0EB810FEFD1D8F8001069
:100FF000404601F00701B14207D90770006800F0D0
:101000000700B04201D00120E7E72878400705D566
:101010002068E96820F4E050084320602878000741
:1010200006D52068296920F4604040EAC1002060AC
:1010300000F058F82168084AC1F30311515CC84018
:101040000649086006480068FFF7DCFE0020C4E798
:10105000003C024008380240DC5200082400002016
:101060001C0000200F2202600C4A136803F00303E7
:101070004360136803F0F0038360136803F4E053E4
:10108000C36012684FF4E05303EAD20202610448DD
:10109000006800F007000860704700000838024050
:1010A000003C02400448054900680968044AC1F34D
:1010B0008221515CC840704724000020083802405B
:1010C000EC5200080448054900680968044AC1F365
:1010D0004231515CC840704724000020083802406B
:1010E000EC520008154810B5006810F00C021448C6
:1010F00013D04110042A0FD0082A0ED10F4C241F00
:101100002268236802F03F025B0207D52068C0F323
:101110008810A0FB010106E0084610BD2168C1F35C
:101120008811A1FB00010023FFF71EF92168C1F31C
:101130000141491C4900B0FBF1F010BD08380240E4
:101140000024F4002DE9F84F04006ED02078DFF879
:101150004C93C007A9F104054AD009F104000168C5
:10116000C1F38101012908D00068C0F38100022881
:101170000AD1D9F80000400206D52868800337D587
:1011800060680028E1D033E06068B0F5803F10D09F
:10119000B0F5A02F286810D020F48030286028688F
:1011A00020F4802028606068A8B1FFF703FE06469F
:1011B0000DE0286840F48030F4E740F48020286097
:1011C000F7E700BFFFF7F6FD801B642873D8286897
:1011D0008003F7D50CE0FFF7EDFD064605E000BF04
:1011E000FFF7E8FD801B6428F0D828688003F7D457
:1011F0002078DFF8AC8280074FF0000A3ED5A74880
:10120000001D016811F00C0F08D00068C0F38100C8
:1012100002280BD1D9F80000400207D428688007C3
:1012200016D5E068012800D112E033E1E068B8B1DA
:101230000120C8F80000FFF7BDFD064605E000BF2D
:10124000FFF7B8FD801B0228C0D828688007F7D5B3
:101250002868216920F0F80040EAC10028600DE00C
:10126000C8F800A0FFF7A6FD064604E0FFF7A2FDC0
:10127000801B02281FD828688007F7D42078000731
:1012800022D5864F87486169703771B101210160AD
:10129000FFF790FD064604E0FFF78CFD801B022857
:1012A00009D838688007F7D50EE0C0F800A0FFF72E
:1012B00081FD064605E082E0FFF77CFD801B0228E9
:1012C0007DD838688007F7D42078400768D5DFF8E4
:1012D000CCB100270BF13C0BDBF80000C0000BD4B5
:1012E000DBF8001041F08051CBF80010DBF8000073
:1012F000012700F0805000906B4E3068C00510D47C
:10130000306840F480703060FFF754FD009005E0D5
:10131000FFF750FD0099401A022850D83068C005E8
:10132000F6D55E4EA0686C3601280FD005283068CF
:1013300010D020F001003060306820F004003060F0
:10134000A068B8B1FFF736FD00900FE0306840F0BC
:101350000100F4E740F004003060F7E7FFF72AFDF2
:101360000099411A41F28830814266D8306880077E
:10137000F4D50EE0FFF71EFD009007E0FFF71AFD21
:101380000099411A41F28830814256D8306880076E
:10139000F4D42FB1DBF8001021F08051CBF800100D
:1013A000A069C8B33D49091D0968C1F3810102293B
:1013B0004AD00228504607D0C8F8600000E03CE060
:1013C000FFF7F8FC04463BE04746C8F86000FFF72B
:1013D000F1FC064605E000BFFFF7ECFC801B02288D
:1013E0002BD828688001F7D4D4E907010843A16A03
:1013F0002E4A490802EB0141626A41EA8211084320
:1014000094F82C1040EA0161C9F8001001203866F8
:10141000FFF7D0FC044606E03EE000BFFFF7CAFC41
:10142000001B022809D828688001F7D534E000BFE6
:10143000FFF7C0FC001B022802D90320BDE8F88F8B
:1014400028688001F4D427E00128F7D0D9F80000FB
:10145000E26900F4800191421CD1226A00F03F0150
:10146000914217D147F6C071626A0140B1EB821F09
:1014700010D1A26A4FF0FF3300F4403103EB520267
:10148000B1EB024F06D194F82C1000F07060B0EB75
:10149000016F01D00120D1E70020CFE704380240DE
:1014A00000004742800E4742007000400000FFFFEE
:1014B00070477047704710B590F83C20012A22D041
:1014C000012280F83C20CA688C6822F440722243D2
:1014D0004C6822F4806222430C6822F400622243AA
:1014E0000C6922F4805222434C6922F400522243B8
:1014F000C969002322F480420A4301684A6480F8E3
:101500003C30002010BD022010BD000070B590F8E6
:101510003C20012A32D0012480F83C40022280F88D
:101520003D2003685A689D6822F070060A683243BD
:101530005A60134B02689A4214D0B2F1804F11D016
:10154000104B9A420ED0104B9A420BD00F4B9A423E
:1015500008D00F4B9A4205D00E4B9A4202D00E4B48
:101560009A4204D1496825F080031943916080F8BC
:101570003D40002180F83C10084670BD022070BD3F
:10158000000001400004004000080040000C004042
:1015900000040140004001400018004010B5040064
:1015A00003D094F83D0010B10EE0012010BD0020E2
:1015B00084F83C00204601F0E1FEA06C08B9114817
:1015C000A064014620468847022084F83D00211D82
:1015D000206801F08DFD012084F8460084F83E006B
:1015E00084F83F0084F8400084F8410084F8420009
:1015F00084F8430084F8440084F8450084F83D00F2
:10160000002010BD0916000810B586B0044614214C
:101610006846FEF797FF204B226800211F489A4238
:101620000ED1016841F0020101600068002200F063
:101630000200059005211D20FFF748FC1D2026E033
:10164000174B9A4225D1026842F0400202600068BE
:1016500000F04000059011481038026842F0020284
:101660000260006800F002000590D813009002208C
:10167000CDE901010920CDE9031069460948FFF7CA
:101680008FFA002205212B20FFF720FC2B20FFF7EB
:101690000FFC06B010BD00000004004040380240BE
:1016A000001800400004024090F83D10012901D0CC
:1016B00001207047022180F83D100168CA6842F09D
:1016C0000102CA6000681149884214D0B0F1804F0D
:1016D00011D00F4988420ED00E4988420BD00E49D6
:1016E000884208D00D49884205D00D49884202D071
:1016F0000C49884204D1816801F00701062903D012
:10170000016841F0010101600020704700000140C4
:101710000004004000080040000C004000040140AC
:1017200000400140001800400168CA6822F0010230
:10173000CA6001680A6A41F211131A4207D10A6AA3
:101740009B101A4203D10A6822F001020A600121AB
:1017500080F83D100020704770B5044690F83C00BA
:101760000025012817D0012684F83C60022084F867
:101770003D002068826822F0770222F47F42826076
:101780000868502838D00DDC20284FD005DC90B3F5
:10179000102811D14AE0022070BD302846D04028E0
:1017A0000AD13BE060282FD070280DD0B0F5805FC3
:1017B00003D0B0F5005F12D0012584F83D60002011
:1017C00084F83C00284670BDCB68D1E9012120682F
:1017D00001F0FFFC2068816841F0770109E0CB68E7
:1017E000D1E90121206801F0F4FC2068816841F40E
:1017F00080418160E1E719E0CA684968206801F02A
:10180000F3FD5021206806E0CA684968206801F0AD
:101810003DFE6021206801F0E6FCCEE7CA68496819
:10182000206801F0E1FD40212068F4E722680146CC
:101830001046F0E77047000030B52E4C002200BF84
:1018400002EBC20104EB81010568CB68AB424BD1CE
:101850000B7E012B02D0022B40D045E00D69002306
:101860002D686B620B691B685B6A4B834B69BBB16C
:10187000042B1BD0082B0B691B681D6A1CD025F498
:1018800020451D624B69D3B1042B1ED0082B0B6978
:101890001B681D6A1FD045F400551D62022322E01B
:1018A0000B691B681D6A25F00A05EAE70B691B68CE
:1018B0001D6A25F0A005E4E725F42065E1E70B6942
:1018C0001B681D6A45F00205E7E70B691B681D6A86
:1018D00045F02005E1E745F40075DEE70B691B687C
:1018E0005B6A8B8303230B76521C12F0FF02A7D096
:1018F00030BD0000D848002070472DE9F041054672
:1019000090F83C0000260C46012810D0012085F8F4
:101910003C0072B1042A1CD0082A2CD00C2A50D0CA
:101920000126002085F83C003046BDE8F081022009
:10193000FBE7D4E90012E368286801F067FD286836
:10194000816921F00C01816128688169A2681143D5
:101950000FE0D4E90012E368286801F0A9FD2868C7
:10196000816921F44061816128688169A26841EA46
:1019700002218161D5E72868D4E9002C277B016A20
:1019800021F480710162C169036A21F0030141EA17
:101990000C0121F0F00C39074FF420674CEA11617B
:1019A00023F4206307EA02221A43C1610262286815
:1019B000C16921F00C01C1612868C169A2681143A5
:1019C00028E02868D4E90027E168036A23F48053FB
:1019D0000362D0F81CC0036A2CF4407C4CEA072751
:1019E0004FF6FF7C27F470470CEA013139434FF47E
:1019F000204723F4204307EA02321A43C1610262FE
:101A00002868C16921F44061C1612868C169A26880
:101A100041EA0221C16184E710B5040003D094F8C3
:101A20003D0010B10EE0012010BD002084F83C0004
:101A3000204601F0A3FC206D08B91148206501463D
:101A400020468847022084F83D00211D206801F0CF
:101A50004FFB012084F8460084F83E0084F83F00E4
:101A600084F8400084F8410084F8420084F8430080
:101A700084F8440084F8450084F83D00002010BD3F
:101A8000851A0008704770B50446006801694FF078
:101A90000005C943890717D4C168C943890713D40E
:101AA000E91E01610120207720688069800702D04B
:101AB000D4F8901005E0D4F8981020468847D4F860
:101AC0009C1020468847257720680169C94349074B
:101AD00019D4C168C943490715D46FF004010161E5
:101AE000022020772068806910F4407F02D0D4F86B
:101AF000901005E0D4F8981020468847D4F89C1040
:101B000020468847257720680169C943090718D40A
:101B1000C168C943090714D46FF0080101610420AA
:101B200020772068C069800702D0D4F8901005E0C3
:101B3000D4F8981020468847D4F89C10204688474F
:101B4000257720680169C943C90619D4C168C9430A
:101B5000C90615D46FF010010161082020772068B4
:101B6000C06910F4407F02D0D4F8901005E0D4F89A
:101B7000981020468847D4F89C102046884725773F
:101B800020680169C943C90709D1C168C943C907A8
:101B900005D1891E0161D4F880102046884720684D
:101BA0000169C94309060AD4C168C943090606D4B4
:101BB0006FF080010161D4F8B0102046884720689A
:101BC0000169C94349060AD4C168C943490606D414
:101BD0006FF040010161D4F88810204688472068E2
:101BE0000169C94389060CD4C168C943890608D470
:101BF0006FF0200101612046D4F8A810BDE87040C4
:101C0000084770BD10B586B0044614216846FEF73B
:101C100099FC23681F4C204A02212048A3420DD181
:101C2000136843F0040313601268029102F0040287
:101C300005924022CDE90021039128E0184CA342EF
:101C400014D1106840F0080010601068029100F094
:101C5000080005905814CDE9000103910491114842
:101C6000694600BFFEF79CFF06B010BD0E4CA342B4
:101C7000FAD1136843F0040313601268029102F072
:101C8000040205926215CDE900210391032104911C
:101C90006946E7E70004004030380240000802408F
:101CA00000080040000C024000040140704770B57D
:101CB000044690F83C0000260D4601280FD0012074
:101CC00084F83C006AB1042A1DD0082A2FD00C2ABF
:101CD0003FD00126002084F83C00304670BD022031
:101CE00070BD206801F088FA2068816941F0080120
:101CF00081612068816921F0040181612068816926
:101D00002A69114311E0206801F0A6FA2068816970
:101D100041F4006181612068816921F48061816101
:101D2000206881692A6941EA02218161D2E720683D
:101D300001F0C8FA2068C16941F00801C16120685A
:101D4000C16921F00401C1612068C1692A69114398
:101D500011E0206801F0EAFA2068C16941F40061ED
:101D6000C1612068C16921F48061C1612068C169D5
:101D70002A6941EA0221C161ACE7000010B5040004
:101D800003D094F83D0010B10EE0012010BD0020FA
:101D900084F83C00204601F0F1FA206E08B91148A1
:101DA0002066014620468847022084F83D00211D18
:101DB000206801F09DF9012084F8460084F83E0077
:101DC00084F83F0084F8400084F8410084F8420021
:101DD00084F8430084F8440084F8450084F83D000A
:101DE000002010BDE91D000808B5006819498842A7
:101DF0000FD11948016841F0040101600068002218
:101E000000F00400009005211E20FFF75FF81E205F
:101E10001AE0124988421BD10F48001D016841F0A9
:101E2000020101600068002200F00200009005211C
:101E30002B20FFF74BF82B20FFF73AF80022052163
:101E40002C20FFF743F82C20BDE80840FFF730B8FE
:101E500008BD000000080040403802400004014076
:101E60007047704710B50446022249B104290ED0CC
:101E7000082913D094F84100012816D0012010BD84
:101E800094F83E000128F9D184F83E200FE094F840
:101E90003F000128F2D184F83F2008E094F8400088
:101EA0000128EBD184F8402001E084F84120012290
:101EB000206801F081F916492068164A884201D04D
:101EC000904203D1436C43F400434364206888424A
:101ED00013D0B0F1804F10D00F4988420DD00F4978
:101EE00088420AD00E49884207D0904205D00D4959
:101EF000884202D00C49884204D1816801F0070170
:101F0000062903D0016841F001010160002010BDE5
:101F100000000140000401400004004000080040AF
:101F2000000C0040004001400018004030B504465D
:101F30000D460068002201F03FF9194B41F21111E2
:101F400020688A10984202D0164B984209D1036A41
:101F50000B4206D1036A134203D1436C23F40043BE
:101F600043642068036A0B4206D1016A114203D11F
:101F7000016821F00101016001203DB1042D08D06C
:101F8000082D09D084F84100002030BD84F83E00BF
:101F9000FAE784F83F00F7E784F84000F4E7000030
:101FA000000001400004014000680349884201D15B
:101FB000FEF706BF7047000000000140704710B5F3
:101FC000002372B190F83C40012C0CD0012480F821
:101FD0003C4090F83D40012C07D090F83D408CB338
:101FE00064E0012010BD022010BD1B295ED2DFE895
:101FF00001F041434547494B4D4F51535557595BAC
:102000000E1114171A1D2023262A2D303300C0F874
:1020100080204CE0C0F8842049E0C0F8882046E0E9
:10202000C0F88C2043E0C0F8902040E0C0F8942035
:102030003DE0C0F898203AE0C0F89C2037E0C0F8B6
:10204000A02034E00BE0C0F8A42030E0C0F8A820C5
:102050002DE0C0F8AC202AE0C0F8B02027E00E291F
:1020600024D2DFE801F007090B0D0F111315171922
:102070001B1D1F2182641AE0C26418E0026516E08D
:10208000426514E0826512E0C26510E002660EE06F
:1020900042660CE082660AE0C26608E0026706E07B
:1020A000426704E0826702E0C26700E0012300218A
:1020B00080F83C10184610BD7047704738B504468C
:1020C00090F83E00202822D181B17AB194F83C00EA
:1020D00001281CD0012084F83C002063204601F038
:1020E00037FC002803D1216B012901D0012038BD24
:1020F00021680A684968009121680C3151E8002F75
:1021000042F0100241E80023002BF5D138BD022037
:1021100038BD70477047704770477047F8B5016821
:1021200004460868CA684B6910F00F0F4FF00005AD
:1021300056D003F0010602F49077374361D0C1070F
:1021400005D0D10503D5216C41F00101216441077F
:1021500005D5D90703D0216C41F002012164810724
:1021600005D5D90703D0216C41F004012164010792
:1021700007D502F02001314303D0216C41F0080162
:102180002164216C00293BD0800604D5900602D53D
:10219000204601F0F7FA20684069216CC0F38010F6
:1021A000090700D440B3204601F090FA2068406946
:1021B00040061ED52068143050E8001F21F0400171
:1021C00040E80012002AF5D1A06B90B16C4901657E
:1021D000A06BFEF74EFB002812D0A06B016DCBE088
:1021E00083060ED593060CD52046BDE8F84001F0D5
:1021F000C9BA2046616DBFE0616D204688472564FD
:10220000F8BD266B2023012E7BD1C60679D5D606D4
:1022100077D50868486800904869400640D5A16BAA
:10222000086840680004000CEAD0A28D8242E7D919
:10223000E085C869B0F5807F2DD020680C3050E86B
:10224000001F21F4807140E80012002AF5D12068B7
:10225000143050E8001F21F0010140E80012002A6C
:10226000F5D12068143050E8001F21F0400140E80B
:102270000012002AF5D184F83E30256320680C3026
:1022800050E8001F21F0100140E80012002AF5D1AB
:10229000A06BFEF7A5FAA08DE18D401A81B229E06E
:1022A000A08DE18D401A81B2E08D0028A8D00029D0
:1022B000A6D020680C3050E8002F22F4907240E83D
:1022C0000026002EF5D12068143050E8002F22F0AF
:1022D000010240E80026002EF5D184F83E30256347
:1022E00020680C3050E8002F22F0100240E8002354
:1022F000002BF5D1A26E01B02046BDE8F04010479A
:10230000FFE705062CD515062AD594F83D002128AF
:102310007FF476AFA068B0F5805F01D12069B0B1DD
:10232000206A411C2162216800784860E08C401ED0
:102330000004000CE084EBD12068C16821F080012A
:10234000C1602068C16841F04001C160F8BD206AE9
:102350000088C0F308004860206A801C2062E5E71E
:102360004006F3D55006F1D5CA68204622F0400257
:10237000CA6084F83D30A16C01B0BDE8F040084768
:10238000A135000870B5040004D094F83D00002584
:1023900010B10DE0012070BD84F83C50204601F0E2
:1023A000CBF9E06E08B91348E0660146204688473D
:1023B000242084F83D002068C16821F40051C160E8
:1023C000204601F03FFA2068016921F49041016143
:1023D0002068416921F02A0141612068C16841F407
:1023E0000051C1602564202084F83D0084F83E003F
:1023F000002070BDF92300082DE9F04387B00646A0
:1024000014216846FEF79EF83149306888425BD156
:1024100030480025016841F010010160006800F0BB
:10242000100005902B481438016841F0010101604B
:102430000068694600F0010005904FF4C06000900C
:10244000022001900290032003900720049022486C
:10245000FEF7A6FB224C21484FF000672060C4E93C
:1024600001754FF48068C4E9035865614FF4803901
:10247000A561C4E9075920466562FEF7DDFA08B197
:10248000FEF7A0F9B463A663154C144860347830A5
:10249000E4E802074020A4E82101114844F8145957
:1024A0006030A561C4E907596562FEF7C5FA08B155
:1024B000FEF788F97463002205212520A663FEF744
:1024C00005FD2520FEF7F4FC07B0BDE8F083000011
:1024D00000100140443802400000024040640240C5
:1024E000640900200022A1B190F83C30012B16D0E5
:1024F000012380F83C3090F83D30202B11D0016C46
:1025000041F0200101640122002180F83C101046B6
:102510007047016C41F020010164012070470220E6
:1025200070478166F0E770477047000070B5044659
:1025300090F83D00202836D191B38AB394F83C003E
:10254000012830D0012084F83C002162A284E2847A
:1025500000252564212084F83D00636B1348D8636F
:10256000636B13481864636B1248D864606B13463E
:1025700005652668606B321DFEF7C8FA21686FF0AA
:102580004000086084F83C502068143050E8001F78
:1025900041F0800140E80012002AF5D1002070BD12
:1025A000FFE70120FBE70220F9E700008936000879
:1025B000C7360008AD35000870477047FEE70000D9
:1025C0002DE9F041DFF87480002510214046FEF728
:1025D000DFFB01261A4C0027A8B1277008214046CE
:1025E000FEF7D6FBA8B1677004214046FEF7D0FB8A
:1025F000B0B1A77002214046FEF7CAFBB8B1E77040
:102600002846BDE8F08120780028E7D10125267012
:10261000E4E760780028E7D145F002056670E3E75B
:10262000A0780028E6D145F00405A670E2E7E0783E
:102630000028E5D145F00805E670E1E7000C02400E
:10264000A40000200D4808B5016841F48001016034
:102650000068002200F48000009005213A20FEF777
:1026600035FC3A20FEF724FC002205214620FEF727
:102670002DFCBDE808404620FEF71ABC3038024069
:1026800010B59CB000220621202002F04DF91A4C12
:10269000002203212060202002F046F960601C2205
:1026A00016496846FDF71CFF0021684601F0F4F961
:1026B0001249A0601C221C3107A8FDF711FF002160
:1026C00007A801F0E9F90D49E0601C2238310EA895
:1026D000FDF706FF00210EA801F0DEF90749206191
:1026E0001C22543115A8FDF7FBFE002115A801F0AE
:1026F000D3F960611CB010BD0000002064520008D6
:102700002DE9F04F87B014216846FDF71BFF6348A1
:102710000024016841F010010160016801F010011E
:102720000591016841F080010160016801F08001BC
:102730000591016841F002010160016801F00201A8
:102740000591016841F008010160016801F008018C
:102750000591016841F004010160016801F0040184
:102760000591016841F0010101600068DFF830A1C6
:1027700000F00100059000224FF484415046FEF71E
:1027800014FB012249F201015046FEF70EFBDFF86F
:102790001491002280214846FEF707FB01224FF4E6
:1027A000E8514846FEF701FBDFF8FCB04FF48077B4
:1027B000002239465846FEF7F8FA1C2000904FF4E4
:1027C00088100226CDE9010669463848FEF7E8F987
:1027D00044F2012000900125CDE90154694650469C
:1027E0000394FEF7DDF94FF410404FF00308CDE9F4
:1027F0000005CDE9024869465046FEF7D1F94FF48D
:10280000E4500090CDE90154694648460394FEF730
:10281000C7F9CDF80C800097CDE9015469464846C8
:10282000FEF7BEF90097CDE9015469465846039476
:10283000FEF7B6F91E208DE8310069465046FEF7D6
:10284000AFF94FF44410CDE900606946174802968D
:10285000FEF7A6F9002205210720FEF737FB072027
:10286000FEF726FB002205210820FEF72FFB08209B
:10287000FEF71EFB002205210920FEF727FB092099
:10288000FEF716FB002205210A20FEF71FFB0A2097
:10289000FEF70EFB07B0BDE8F08F000030380240B5
:1028A000000C0240000802400000024000100240FC
:1028B00010B588B000241D4805940694079404942C
:1028C0000094019402941849039401605321C0E9D3
:1028D00001144FF6FF71C0E9031480218161FEF7F6
:1028E0005DFE08B1FDF76EFF4FF48050049004A91F
:1028F0000E48FEF731FF08B1FDF764FF0B48FFF704
:102900008BF808B1FDF75EFF0120CDE9004002948D
:102910000422694605480394FEF7EFFF002801D022
:10292000FDF750FF08B010BD001800403C08002023
:1029300010B58EB000240794089409940A940B945F
:102940001C2168460C94FDF7FDFD20481E490160DE
:102950005321C0E9011440F2E731C0E9031480219A
:102960008161FEF71BFE08B1FDF72CFF4FF480508C
:10297000079007A91548FEF7EFFE08B1FDF722FF03
:102980001248FFF7FBF908B1FDF71CFF0B940BA9E8
:102990000E480C94FEF7BAFD08B1FDF713FF602056
:1029A00000904FF4FA70CDE901040022694607480F
:1029B0000494FFF77CF908B1FDF704FF0348FFF723
:1029C00021F90EB010BD00000004004020060020D8
:1029D00010B58AB0002407941C2168460894FDF7BE
:1029E000B1FD1748154901605321C0E9011440F2B7
:1029F000E731C0E903148461FFF7C0F908B1FDF7BE
:102A0000E1FE079407A90E480894FEF77FFD08B180
:102A1000FDF7D8FE702000904FF4FA70CDE9010464
:102A20000422694606480494FFF741F908B1FDF70E
:102A3000C9FE0348FFF7E6F80AB010BD00080040E1
:102A4000D406002010B592B000240F941C2108A8D1
:102A50001094FDF777FD20216846FDF773FD2148AE
:102A60001F490160A721C0E9011440F2E731C0E924
:102A7000031444618461FFF781F908B1FDF7A2FEF8
:102A80000F940FA917481094FEF740FD08B1FDF709
:102A900099FE702008904FF4FA70CDE909040C9467
:102AA0000D940C2208A90F480E94FFF700F908B105
:102AB000FDF788FE00944FF40050CDE904400294E5
:102AC00001940394694607480794FEF7F4FC08B1A3
:102AD000FDF778FE0348FFF795F812B010BD00002F
:102AE00000040140880700200C4810B50A49016025
:102AF0004FF4E1314160002181600C22C160C0E9E6
:102B000004128161C161FFF73DFC002803D0BDE8DC
:102B10001040FDF757BE10BD00100140F008002026
:102B2000FEE7FEE7FFF74CFD0446C00703D0002197
:102B3000012000F015FAA00703D50121084600F096
:102B40000FFA642000F09CFFECE70000104810B57D
:102B5000007840B1012808D0022818D1BDE8104003
:102B6000012000F0E3B900210CE00120FDF72CFE6C
:102B7000002801DD012001E04FF0FF304FF28031ED
:102B800010FB01F1BDE81040012000F053B910BD69
:102B9000A800002010B50C4C2078012801D000209E
:102BA00010E00120FDF710FE002801DD012001E00A
:102BB0004FF0FF304FF6C01110FB01F1012000F083
:102BC00039F90220207010BDA8000020704770471E
:102BD000704770477047704710B507490748FFF7BF
:102BE00081FC0128F9D0BDE810404FF480720449FF
:102BF0000248FFF763BA00004D3A0008F0080020D1
:102C0000FC4900200278FF2A0DD14278032A07D11F
:102C1000002283189B788B54521CD2B2032AF8D31B
:102C20004079AA2801D0FDF7F0BC7047104A10B5D2
:102C3000FF2111700321517000215418435C491C7D
:102C4000C9B2A3700329F8D3AA205071094C03E03C
:102C50000121032000F02EF820680068C0434006E0
:102C6000F6D4BDE81040062201490248FFF75EBCD9
:102C7000AC000020F00800200EB50020FFF7ACFFEC
:102C80000A4D0B4E4FF0FF3422466946286801F08A
:102C9000F3FF0128F8D102A96846FFF7B3FF00232C
:102CA000224602A9306801F0D7FEEDE700000020BF
:102CB00004000020024601280BD00F48022A10D041
:102CC000032A15D0042A16D1031501290CD001229C
:102CD0000BE00A48012902D00122012106E000226E
:102CE000FBE74FF48053F0E700221946FEF75DB88A
:102CF0004FF40063E9E7704700080240000C02400F
:102D000070B50D00094900EB400202EBC00001EB79
:102D1000800454F82C0C34F8281C01D0002200E068
:102D20000122FEF742F804F8045C70BDB4000020F4
:102D30002DE9F0410E461546804600270121FFF798
:102D4000DFFF08EB4801394801EBC80100EB8104C3
:102D500044E90365DDB354F8100CB04262D0002D95
:102D600000DA6D4200EE105A9FED311A54F81C1C27
:102D7000F8EEC00A096881EE200AF7EE000A30EE8C
:102D8000600ABCEEC00A10EE100A80B2C86254F8A5
:102D90001C1CC86054F8181CF9B1042923D0082958
:102DA00054F81C1C4FEA5000096822D0C1F84000BA
:102DB00054F8100C0125B0421DDA34F8201C54F8E8
:102DC000240C2A46FDF7F1FF04F8035C1FE0FFE73F
:102DD0000021404600F02EF824E054F81C1C400866
:102DE00009684863E4E754F81C1C400809688863D4
:102DF000DEE7C863DCE70ADD34F8201C54F8240C55
:102E00004FF00002FDF7D1FFFF2004F8030C74E936
:102E10000701FFF727F806462068FEF745FC40EA61
:102E2000060725723846BDE8F0810000B400002096
:102E30000024744970B50D4604460121FFF760FF78
:102E400004EB440000EBC4013648002D00EB810484
:102E500044F8085C0BDD34F8201C54F8240C4FF0C7
:102E60000102FDF7A2FF012004F8030C0CE03DDA9B
:102E700034F8201C54F8240C4FF00002FDF795FFA5
:102E8000FF2004F8030C6D4200EE105ADFED260A15
:102E90000220B8EEC00A04F8140C54F81C1C80EE92
:102EA000801AB7EE000A096831EE400ABCEEC00A8B
:102EB00010EE100A80B2C86254F81C1CC86054F8A6
:102EC000181C09B3042925D0082954F81C1C4FEA02
:102ED0005000096824D0086474E90701FEF7C2FFB6
:102EE00005462068FEF7E0FB284370BD002504F886
:102EF000145C04F8035C74E90701FFF717F8206815
:102F0000FEF712FC284670BD54F81C1C40080968E6
:102F10004863E1E754F81C1C400809688863DBE754
:102F2000C863D9E7B40000200024744910B50446F2
:102F30000021FFF77FFF01212046FFF7E1FE04EBB0
:102F40004401044A01EBC40102EB8101002041F875
:102F5000100C10BDB4000020012000F091FDFBE733
:102F600030B4094C012311B1012906D103E04FF01F
:102F7000FF32237001E0012263704FF4964112FB8F
:102F800001F130BCFFF756BFA800002070B5002546
:102F9000094E2C4604EB440000EBC40006EB800015
:102FA000064A00690E21FFF70AF82843641CE4B2C0
:102FB0000546032CEED370BDB4000020AD410008DF
:102FC000F0B505AC94E8E010014C84E8EF10F0BDDA
:102FD0003801002010B5502080F31188BFF34F8FC7
:102FE000BFF36F8F01F08AFF18B104494FF0805092
:102FF0000860002080F3118810BD000004ED00E09F
:1030000030B593B030216846FDF79CFA14210CA826
:10301000FDF798FA1D480025016841F080510160D4
:10302000006800F0805011901948016841F4804117
:1030300001600068022400F480401190012000909B
:10304000000401908001CDE9064008AA0420A821CF
:1030500082E813000B906846FEF774F808B172B668
:10306000FEE70CA90F2081E831004FF4A0500F902B
:103070004FF48050109005210CA8FDF759FF00284F
:1030800001D072B6FEE713B030BD000040380240F8
:10309000007000400248016841F47001016070470F
:1030A00088ED00E00148FEF7EEBC0000240A002095
:1030B0000148FEF7E8BC0000200600200148FEF7AA
:1030C000E2BC0000D406002010B50448FEF7DBFC8B
:1030D000BDE810400248FEF7D6BC0000880700207B
:1030E0003C0800200148FEF7CEBC00008807002005
:1030F000F0B50268254C264D264E274F274B4FF042
:10310000804CA04209D0604507D0A84205D0B0420B
:1031100003D0B84201D0984204D122F0700E4A6820
:1031200042EA0E02A0421BD0604519D0A84217D037
:10313000B04215D0B84213D0984211D0184DA842D1
:103140000ED0184DA8420BD0174DA84208D0174DED
:10315000A84205D0164DA84202D0164DA84203D170
:1031600022F44075CA682A434D6922F080022A433E
:1031700002608A68C2620A688262A04201D09842F4
:1031800001D10969016301214161F0BD00000140E5
:103190000004004000080040000C00400004014012
:1031A0000040014000440140004801400018004038
:1031B000001C00400020004010B501F01F03012159
:1031C000046A99408C430462016A9A401143016287
:1031D00010BD10B5846842EA032224F47F440A43F8
:1031E0002243826010BD826822F070020A4342F0DE
:1031F0000701816070470000F0B5026A22F0010209
:103200000262036A42688469124E24F073050C68F6
:103210002C4323F002058B682B430D4DA84201D0AF
:10322000B04205D123F00807CB683B4323F00403E9
:10323000A84201D0B04205D14D6922F44072154335
:103240008A692A4342608461496841630362F0BD30
:103250000000014000040140F0B5026A22F01002B3
:103260000262026A436884690D6824F4E64444EA11
:1032700005248D6822F0200242EA05120F4D104EFF
:10328000A84201D0B04206D1CF6822F0800242EAC3
:10329000071222F04002A84201D0B04207D14D6986
:1032A00023F4406343EA85038D6943EA8503436061
:1032B0008461496881630262F0BD00000000014042
:1032C00000040140F0B5026A22F480720262026AD0
:1032D0004368C46922F4007224F073050C68124E2E
:1032E0002C438D6842EA05220E4DA84201D0B0421F
:1032F00006D1CF6822F4006242EA072222F48062FB
:10330000A84201D0B04207D14D6923F4405343EAAB
:1033100005138D6943EA05134360C4614968C163BD
:103320000262F0BD000001400004014030B5026AB5
:1033300022F480520262046A4268C3690D6823F471
:10334000E64343EA05238D6824F4005444EA053437
:10335000084DA84202D0084DA84204D14D6922F47C
:10336000804242EA85124260C36149680164046296
:1033700030BD000000000140000401400D4940F84C
:10338000801F0D4941600D4981600D49C1600D49A3
:1033900001610D4941610D4981610D49C1610D49CD
:1033A00001620D4941620D4981620D49C1620D49B9
:1033B00001637047A91F0008BD1F0008B92000085D
:1033C000BB20000839180008F9180008AD1C0008D7
:1033D000611E0008631E000835180008B3140008B9
:1033E000B5140008B114000810B5036A046A24F08B
:1033F00001040462846924F0F00444EA021423F016
:103400000A020A438461026210BD000070B5046ABA
:1034100024F0010404628469056A154EB04214D098
:10342000B0F1804F11D0134EB0420ED0124EB042C8
:103430000BD0124EB04208D0114EB04205D0114E02
:10344000B04202D0104EB04203D124F00304144322
:1034500001E044F001041A0724F0F00444EA126287
:1034600025F00A0301F00A0119438261016270BD6F
:10347000000001400004004000080040000C004033
:1034800000040140004001400018004010B5036AEC
:1034900023F0100303628369046A23F4704343EA50
:1034A000023224F0A00343EA01118261016210BDDF
:1034B00030B5046A24F0100404628469056A24F4B7
:1034C000407444EA022222F470444FF6FF7202EA8A
:1034D00003322243A02425F0A00304EA011119437A
:1034E0008261016230BD000086B0FFF74FFD1848D1
:1034F000144B154A15498DE80F00164B164A17490B
:103500001748FFF75DFD174C4FF0FF354FF4C856D5
:103510002A4604A9206801F0AFFB0128F8D1BDF8C4
:1035200011109DF8100049BA4FF4C86211FB02F166
:103530003246FFF7FDFB04A8FFF778FB022000F0FE
:1035400013F8E5E7D72B0008D32B0008CF2B000892
:10355000952B0008D52B0008D12B0008CD2B000897
:103560004D2B000804000020014601280AD00A481B
:1035700002290AD003290BD004290CD15FEA20517B
:10358000FDF70BBC01210548FAE74FF48051F7E73E
:103590004FF40061F4E7704700080240000C02405D
:1035A000806B0021C185C184416D084770B5846B73
:1035B0002068406994F83D10C0F3C010002521290F
:1035C00004D118B1E584204600F0A7F820684069CE
:1035D00094F83E10C0F38010222904D118B1E5857B
:1035E000204600F073F8206C40F010002064204664
:1035F000616DBDE8704008470146806B0968096845
:10360000C9052FD40021C18501680C3151E8002F74
:1036100022F4807241E80023002BF5D101681431B7
:1036200051E8002F22F0010241E80023002BF5D1E0
:103630000168143151E8002F22F0400241E80023D4
:10364000002BF5D1202180F83E10016B012909D112
:1036500001680C3151E8002F22F0100241E80023EC
:10366000002BF5D1016B012901D0016D0847826E55
:10367000818D1047806B016B012901D0C16C084717
:10368000818D826E490810470146806B0968096880
:10369000C90516D40021C1840168143151E8002FF6
:1036A00022F0800241E80023002BF5D101680C31A3
:1036B00051E8002F42F0400241E80023002BF5D1F1
:1036C0007047816C0847806B416C084701680C317A
:1036D00051E8002F22F4907241E80023002BF5D12D
:1036E0000168143151E8002F22F0010241E8002363
:1036F000002BF5D1016B012909D101680C3151E88A
:10370000002F22F0100241E80023002BF5D12021E8
:1037100080F83E1000210163704701680C3151E8C8
:10372000002F22F0C00241E80023002BF5D1202118
:1037300080F83D10704700000949416409498164DF
:103740000949C1640949016509494165094981651A
:103750000949C16509490166094981667047000048
:10376000BB250008B92500082925000827250008E1
:103770001B21000815210008192100081721000845
:103780001321000808B590F83E10222901D002202C
:1037900008BD82684FF480539A4201D1016921B17A
:1037A000816A9A421BD04AB10AE00268816A526873
:1037B000C2F308020A80816A891C08E0026972B1BA
:1037C0000268526802F07F020A70816A491C8162B5
:1037D000C18D491E0904090CC18503D019E0026896
:1037E0005268F1E70168CA6822F02002CA600168E5
:1037F000CA6822F48072CA6001684A6922F0010234
:103800004A61202180F83E10016B012903D0016D2F
:103810008847002008BD0021016301680C3151E890
:10382000002F22F0100241E80023002BF5D101689F
:103830000A68D20602D50A6849680091826E818DB5
:103840009047E6E770B5044600680169E26821F434
:103850004051114301612169A068E269084361692F
:10386000114308432168CA6849F20C639A43024332
:10387000CA6020684169A26921F440711143416125
:1038800031492068884202D03049884202D1FDF790
:1038900019FC01E0FDF706FCE2690023192164250B
:1038A0003226B2F5004F626828D0A0FB0101930FC9
:1038B0009200FCF759FD0146B0FBF5F06FF01802DD
:1038C000504301EB800006EB0010B0FBF5F000F078
:1038D000F002B1FBF5F002EB0012B1FBF5F06FF076
:1038E0001803584301EB800006EB0010B0FBF5F025
:1038F00000F00F0021681044886070BDA0FB01013A
:1039000092185B41FCF730FD0146B0FBF5F0020177
:10391000B1FBF5F06FF01803584301EB800006EBA4
:10392000C000B0FBF5F000F0F80002EB4002B1FB84
:10393000F5F0584301EB800006EBC000B0FBF5F05A
:1039400000F00700D6E7000000100140001401401D
:1039500038B581628285002513460446056422201D
:1039600084F83E00A26B1C48D063A26B1B48106415
:10397000A26B1B48D064A06B0A4605652168A06B4A
:10398000091DFDF7C3F8206801684068009084F8BD
:103990003C50206948B120680C3050E8001F41F4C9
:1039A000807140E80012002AF5D12068143050E8F8
:1039B000001F41F0010140E80012002AF5D1206803
:1039C000143050E8001F41F0400140E80012002A86
:1039D000F5D1002038BD0000F93500087536000823
:1039E000AD3500080148FEF799BB0000F008002043
:1039F000FEE70907090E002804DB00F1E02080F84B
:103A00000014704700F00F0000F1E02080F8141D52
:103A10007047FDF7DDF9FFF7F3FAFEF771FEFEF7E9
:103A200011FEFEF745FFFFF75FF8FEF781FFFEF797
:103A3000CFFFFFF707F8FEF723FE00F028F8FEE7B8
:103A400001460020842900D0C81C704738B50446C0
:103A5000084884420CD1094800236A460649006898
:103A600001F0AAF84FF4807203492046FEF726FBC6
:103A700038BD0000F0080020FC49002000000020B4
:103A800010B500B9012000F0F3FD002010BD10B505
:103A900000F056FE002010BD7FB50D46044641697A
:103AA000B0F9080081B1A16971B1FFF7C9FFD4E98C
:103AB00005128DE80700D4E900102B46226901F0B9
:103AC000DEF9039004B070BDFFF7BAFF03A9CDE99A
:103AD0000001208A2B4682B2D4E9001001F0A2F93D
:103AE000012801D00020EDE70398EBE72DE9F04134
:103AF000184C0F460546E6682068001D00F086FC5D
:103B000038B9206890F82C10012088402169814341
:103B10002161681C07D137B12168BDE8F0410E482A
:103B2000091D00F0C1BC20683544B54245602168DC
:103B300005D2A06BBDE8F041091D00F09DBC606B93
:103B4000091D00F099FCA06A854200D2A562BDE87B
:103B5000F081000028000020F40B00202DE9F04146
:103B6000054600F0ADFC2E4CA068401CA06020680B
:103B70002C4F10B1606940B32DE02560A06801288A
:103B800029D1002606EB860007EB800000F066FCDA
:103B9000761C072EF6D323488C3000F05FFC2148BA
:103BA000A03000F05BFC1F48B43000F057FC1D480B
:103BB000C83000F053FC1B48DC3000F04FFC1948C3
:103BC0008C3060631430A06305E02068E96AC06A45
:103BD000884200D82560606A401C6062E96A012062
:103BE000226988401043206101EB810007EB8000CF
:103BF000291D00F059FC00F083FC606900280CD0FE
:103C00002068E96AC06A884207D207494FF08050AD
:103C10000860BFF34F8FBFF36F8FBDE8F0810000E6
:103C200028000020180B002004ED00E038B500F05B
:103C300047FC104C2068C8B90F4800F00FFC0E4834
:103C4000143000F00BFC0C48E060143020610A4B8B
:103C50000020A83B009003F148020C21082000F04E
:103C600084FE206010B105A100F0CCFCBDE8384016
:103C700000F046BC64000020B00C0020546D72516E
:103C80000000000030B4026C0B46002A0BD0C16863
:103C90001144C1608468A14201D30168C16030BC95
:103CA0001846FCF7D8BB30BC70472DE9F041856B56
:103CB000174604460026026C82B1C7B1E068FCF7E3
:103CC000CAFBE168206C091AE1602268914202D2C5
:103CD000A168081AE060022F16D017E02068A8B982
:103CE000A06801F071F906460020A0600EE060684F
:103CF000FCF7B1FB216C606808446060A1688842F1
:103D000004D32068606001E005B16D1E6D1CA563E1
:103D10003046BDE8F08110B5044690F8610058B116
:103D200001280CD002280FD0502080F31188BFF357
:103D30004F8FBFF36F8FFEE7206B00F0F5FB20463F
:103D4000BDE8104000F0F0BB10BD000010484FF47B
:103D50007051420706D0C01D0D4920F00700411ADE
:103D6000C1F570510B4A00230144C2E90003083930
:103D7000183A21F0070111604B600B600B1AC0E983
:103D8000001393604FF00040536050617047000093
:103D9000D80C002090000020144E154CA6F1C80746
:103DA0004FF08058DFF84C9012E000BF00F088FB25
:103DB000F068C568281D00F029FBA068401EA060BF
:103DC0006068401E606000F09BFB2846FFF7A3FF81
:103DD00060680028EAD138680128F9D9C9F800805C
:103DE000BFF34F8FBFF36F8FF2E70000E00B0020AF
:103DF0002800002004ED00E00346009829B102608D
:103E0000C0E90F31012100F0E3BD0060F8E72DE9C2
:103E1000F0479A46DDE9098481466FF00303206B81
:103E200003EB82021044089E20F00707780707D0B2
:103E3000502080F31188BFF34F8FBFF36F8FFEE7E1
:103E4000002561B1002023180A5C83F834200A5C45
:103E500012B1401C2028F6D384F8535001E084F8B6
:103E60003450072E00D30626E662C4E91565201DEE
:103E700000F0FFFA04F1180000F0FBFA2461C6F12B
:103E800007006462A061E56584F8605052464946C7
:103E9000384600F0A5FA2060B8F1000F01D0C8F84C
:103EA0000040BDE8F087000030B5114900E0114640
:103EB0000A688242FBD34B685C18844203D1406895
:103EC00018444860084643681C18944209D1084CBD
:103ED000183C2468A24209D052681A4442600A6819
:103EE00012680260814200D0086030BD0460F9E7CA
:103EF0009000002070B5002441600B4D006191429C
:103F000006D8D11A8269914206D2011D286907E0BC
:103F10009A4203D2994201D3012403E0011DE868CB
:103F200000F0AAFA204670BD6400002010B50446D7
:103F300000F0C6FAA06B28B15FF0000400F0E0FAD0
:103F4000204610BD0124F9E730B587B0394D67E050
:103F50000498002864DB069C606910B1201D00F005
:103F600055FA03A800F0D8F8024604980A2857D258
:103F7000DFE800F00505052D334A05052D3394F8DB
:103F8000240040F0010084F824000599A069059BF5
:103F900001442046FFF7AEFF68B3216A20468847F8
:103FA00094F8240040073BD5002000900598A169B3
:103FB000002342181946204601F01EF9D8B95020B6
:103FC00080F31188BFF34F8FBFF36F8FFEE714F8B4
:103FD000240F20F00100207022E094F8240040F02B
:103FE000010084F824000598A06128B181181346C7
:103FF0002046FFF77FFF13E0502080F31188BFF3C6
:104000004F8FBFF36F8FFEE794F82400810703D42E
:10401000204600F089FA03E020F0010084F8240033
:10402000002204A9286800F027FE002890D107B0DC
:1040300030BD0000640000202DE9FC410F4605461C
:1040400000F0C2FB01A800F067F80446019818B11F
:1040500001F040F8BDE8FC81254EAFB13069006841
:10406000D0B30027291B3A46306800F0DFFA01F090
:1040700031F80028EED11F494FF080500860BFF39F
:104080004F8FBFF36F8FE5E7A542EBD801F022F821
:10409000F0682746C068C468201D00F0B7F994F89E
:1040A0002400410719D5A0692B4641193A462046FC
:1040B000FFF720FFA8B100200346014600902A46E2
:1040C000204601F099F860B9502080F31188BFF3C1
:1040D0004F8FBFF36F8FFEE707E020F0010084F8F9
:1040E0002400216A20468847B4E70127BAE7000088
:1040F0006400002004ED00E00648416B096829B126
:10410000416BC968C9684968816270474FF0FF31E7
:10411000FAE700002800002070B5054600F0E8FE30
:10412000064E0446B068844203D200F009F801202C
:1041300000E0002028602046B46070BD64000020CC
:10414000F8B5194D20E0C068C4680668201D00F06D
:104150005DF9216A2046884794F82400400713D56A
:10416000A0693044B04206D924616060211DE8682E
:1041700000F082F908E00020034601460090324634
:10418000204601F039F838B1E86801680029DAD131
:104190002969C5E90310F8BD502080F31188BFF3E9
:1041A0004F8FBFF36F8FFEE76400002010B5264AE3
:1041B000002100BF01EB410303EBC10302EB8303CA
:1041C0001B6983423AD101EB410000EBC10002EBD5
:1041D000800494F92910E0690844E061227E012AF4
:1041E0000BD1226A904209D1D4E90401FDF79EFE69
:1041F0002069FDF799FA0020207610BD01290CD125
:1042000090420ADDA1890022A068FCF7CEFDFF20C4
:1042100084F82900207E0128EFD194F92900401C60
:10422000EBD1D4E907018842E7DAA1890122A0682D
:10423000FCF7BBFD012084F8290010BD491CC9B260
:104240000329B7D310BD0000B4000020084840681F
:10425000401C4FF0500080F3118804D0BFF34F8F03
:10426000BFF36F8FFEE7BFF34F8FBFF36F8FFEE794
:1042700098000020074CE068016841B1C068002147
:10428000D0F80000FFF7D8FEFFF75EFEF3E701214C
:104290000020F7E7640000202DE9F041044600F01B
:1042A0000FF994F9455004F1240609E0606A48B119
:1042B000304600F0D5FE08B100F008FA6D1E6DB270
:1042C000002DF3DC4FF0FF3684F8456000F018F95C
:1042D00000F0F6F894F9445004F1100709E0206961
:1042E00048B1384600F0BCFE08B100F0EFF96D1E91
:1042F0006DB2002DF3DC84F84460BDE8F04100F0BD
:10430000FFB800002DE9F0410546002700F05CFAF7
:10431000324E306808B9FFF719FD706905424ED179
:10432000C5B3083568070ED005F00700C0F10800D6
:104330000544680707D0502080F31188BFF34F8FE2
:10434000BFF36F8FFEE72DB37068854237D82348DF
:10435000183001460C6801E020460C466168A9420D
:1043600002D221680029F7D131688C4227D0076832
:104370002168016060680837411B10290FD9601956
:10438000420708D0502080F31188BFF34F8FBFF34E
:104390006F8FFEE713E041606560FFF785FD6168A0
:1043A0007068401A7060B268904200D2B060706964
:1043B00001430020C4E90001F068401CF06000F0F7
:1043C00089FE780707D0502080F31188BFF34F8F04
:1043D000BFF36F8FFEE73846BDE8F081780000201C
:1043E00010B5031F4FF080741C601B1F21F00101EA
:1043F0001960191F044B0B6014390A60091F6FF014
:10440000020244380A6010BD4D420008D0E9013272
:1044100001699A60D0E901235A604A68824201D159
:1044200082684A60002202610868401E08600868CD
:1044300070470000034B036003F1640008608020B4
:104440001060704758010020034B036003F16400C3
:104450000860802010607047BC03002000F1080154
:104460004FF0FF32C0E90112C1600161002101601B
:10447000704700210161704730B50B685A1C02D0AB
:1044800000F1080202E0026904E02246546825684F
:104490009D42FAD953684B6099608A605160086107
:1044A0000168491C016030BD42684A6093688B60B6
:1044B00093685960916008610168491C0160704708
:1044C000502080F31188BFF34F8FBFF36F8F0A49DD
:1044D0004868401C486001280CD10848006810F06A
:1044E000FF0F07D0502080F31188BFF34F8FBFF329
:1044F0006F8FFEE7704700009800002004ED00E099
:104500000849486828B1401E486001D180F31188ED
:104510007047502080F31188BFF34F8FBFF36F8F28
:10452000FEE700009800002070B500282AD0164D44
:10453000A0F1080460686969084207D1502080F33F
:104540001188BFF34F8FBFF36F8FFEE722683AB138
:10455000502080F31188BFF34F8FBFF36F8FFEE7BA
:104560008843606000F030F96068696808446860FA
:104570002046FFF799FC2869401C2861BDE870407F
:1045800000F0A8BD70BD0000780000204FF0E020D2
:1045900000210161816105494FF47A720968B1FB1C
:1045A000F2F1491E4161072101617047240000209A
:1045B00010B5FBF7B5FE114910280ED300F1E0202D
:1045C00090F8F0030A78904207D2502080F31188C7
:1045D000BFF34F8FBFF36F8FFEE70948006889680C
:1045E00000F4E060884207D9502080F31188BFF3BF
:1045F0004F8FBFF36F8FFEE710BD000098000020C3
:104600000CED00E010B5084B002200BF53F832401B
:104610001CB1521C082AF9D310BD43F8321003EB29
:10462000C201486010BD0000D80A002070B51546D0
:104630000E460446FFF744FF94F944100020491C3D
:1046400001D184F8440094F94510491C01D184F843
:104650004500FFF755FFA06B28B92A46314604F103
:10466000240000F051F82046BDE87040FFF714BE6A
:1046700010B5020014D00F48006B38B1502080F301
:104680001188BFF34F8FBFF36F8FFEE700F09CF8E8
:1046900000211046FFF72AFA00F01CFD002807D180
:1046A00005494FF080500860BFF34F8FBFF36F8F05
:1046B00010BD00002800002004ED00E002490A6A55
:1046C0000260C9684160704728000020014901204C
:1046D000C86170472800002010B50C4650B1094948
:1046E00009681831FFF7C8FE2046BDE810400121D7
:1046F000FFF7FCB9502080F31188BFF34F8FBFF351
:104700006F8FFEE72800002070B514460D4668B193
:104710000A4909681831FFF7C7FE0CB14FF0FF35A1
:1047200021462846BDE87040FFF7E0B9502080F3ED
:104730001188BFF34F8FBFF36F8FFEE72800002073
:1047400030B587B00024039405AA04A903A80494F3
:10475000FFF770FEDDE903010094CDE901100023AD
:1047600015A11748059A00F08AFB164D0028E8624B
:104770001FD000F011FD012809D0401C19D1502094
:1047800080F31188BFF34F8FBFF36F8FFEE7502088
:1047900080F31188BFF34F8FBFF36F8F4FF0FF305F
:1047A000A86201206861EC6007B0BDE8304000F00D
:1047B00041B807B030BD000049444C45000000003E
:1047C000993D0008280000200248016B491C016344
:1047D00070470000280000201448016B11B101212E
:1047E000C16170470021C1610169B1FA81F1C1F174
:1047F0001F0101EB81020E4951F822306BB101EB30
:10480000820101F108034A6852684A609A4201D164
:1048100052684A60D16801607047502080F3118867
:10482000BFF34F8FBFF36F8FFEE70000280000201B
:10483000180B00201CB537480168374A914207D150
:10484000502080F31188BFF34F8FBFF36F8FFEE7C7
:1048500000683149491E884207D1502080F31188F1
:10486000BFF34F8FBFF36F8FFEE72C49087801909D
:10487000FF20087008788DF800009DF800009DF872
:10488000002000F0F000904207D0502080F3118803
:10489000BFF34F8FBFF36F8FFEE79DF80000204CF2
:1048A00000F0500020700720A06005E09DF8002077
:1048B00052008DF80020401E9DF800201206F5D40D
:1048C000A060032807D0502080F31188BFF34F8FDA
:1048D000BFF36F8FFEE74FF44070A060019808703F
:1048E0000C482030016841F470010160016841F01A
:1048F00070410160FFF74AFE00206060FBF7D8FCC2
:104900000848016841F040410160FBF7BDFC002010
:104910001CBD000000ED00E071C20F4100E400E0AA
:104920009800002034EF00E0F8B517460E46050069
:1049300013D005FB06F04830FFF7E4FC04000AD072
:10494000002084F8460004F148023B4631462846E0
:104950000094FFF751FA2046F8BD502080F31188EB
:10496000BFF34F8FBFF36F8FFEE738B5049D18B1CB
:1049700053B1CAB181B120E0502080F31188BFF358
:104980004F8FBFF36F8FFEE7502080F31188BFF386
:104990004F8FBFF36F8FFEE7502080F31188BFF376
:1049A0004F8FBFF36F8FFEE739B1502080F311882E
:1049B000BFF34F8FBFF36F8FFEE748241C460123E0
:1049C00084F846302B460094FFF716FA204638BD8F
:1049D00070B50D46040025D0FFF772FDD4E90F2015
:1049E000216802FB0011A1600021A16321686160C0
:1049F0000A46D4E90F01401E00FB0121E160214677
:104A00004FF0FF3001F8440F487004F110008DB1F1
:104A1000FFF724FD04F12400FFF720FDFFF770FDF0
:104A2000012070BD502080F31188BFF34F8FBFF37A
:104A30006F8FFEE721690029F0D000F011FB0028FC
:104A4000ECD004494FF080500860BFF34F8FBFF3A4
:104A50006F8FE3E704ED00E02DE9FF4782B01D46CC
:104A60008A464FF00008040003D0BAF1000F08D0C6
:104A700011E0502080F31188BFF34F8FBFF36F8F89
:104A8000FEE7206C38B1502080F31188BFF34F8FC0
:104A9000BFF36F8FFEE7022D0AD1E06B012807D02C
:104AA000502080F31188BFF34F8FBFF36F8FFEE765
:104AB00000F010FA3F4F4FF000094FF0805648B910
:104AC000049838B1502080F31188BFF34F8FBFF3A3
:104AD0006F8FFEE7FFF7F4FCA06BE16B884207D312
:104AE000022D05D00498D0B1B8F1000F1AD01EE005
:104AF0002A4651462046FFF7D8F8616A19B104F1F9
:104B0000240000F0ADFA20B13E60BFF34F8FBFF339
:104B10006F8FFFF7F5FC012006B0BDE8F087FFF7C7
:104B2000EFFC22E06846FFF7C9FD4FF00108FFF7F0
:104B3000E7FCFFF749FEFFF7C3FC94F94400401C73
:104B400001D184F8449094F94500401C01D184F8C7
:104B50004590FFF7D5FC04A9684600F029F930B16B
:104B60002046FFF799FB00F0B5FA0020D4E7FFF7E5
:104B7000A7FCA06BE16B884213D1FFF7C1FC04F1E5
:104B800010000499FFF7A8FD2046FFF785FB00F011
:104B9000A1FA00289ED13E60BFF34F8FBFF36F8F05
:104BA00098E7FFF7ADFC2046FFF776FB00F092FA9E
:104BB00090E7000004ED00E02DE9F0471F46904625
:104BC0008946040003D0B9F1000F08D011E050204D
:104BD00080F31188BFF34F8FBFF36F8FFEE7206C18
:104BE00038B1502080F31188BFF34F8FBFF36F8F20
:104BF000FEE7022F0AD1E06B012807D0502080F396
:104C00001188BFF34F8FBFF36F8FFEE7FFF7D0FC24
:104C10005020EFF3118680F31188BFF34F8FBFF35D
:104C20006F8FA06BE16B884206D3022F04D0002067
:104C300086F31188BDE8F08794F94550A06B3A4699
:104C400049462046FFF731F8681C04D06D1C84F8F3
:104C500045500120ECE7606A0028FAD004F12400F6
:104C600000F0FEF90028F4D0B8F1000FF1D00121D6
:104C7000C8F80010EDE700002DE9F747002683B0E3
:104C80008A46040003D0BAF1000F08D011E050208A
:104C900080F31188BFF34F8FBFF36F8FFEE7206C57
:104CA00038B1502080F31188BFF34F8FBFF36F8F5F
:104CB000FEE700F00FF9DFF8F4804FF000094FF045
:104CC000805748B9059838B1502080F31188BFF358
:104CD0004F8FBFF36F8FFEE7FFF7F2FBA56BC5B1F8
:104CE00051462046FEF7CEFF6D1EA563206950B1E8
:104CF00004F1100000F0B4F928B1C8F80070BFF357
:104D00004F8FBFF36F8FFFF7FBFB012006B0BDE8AD
:104D1000F087059808B11EB106E0FFF7F1FB27E028
:104D20006846FFF7CBFC0126FFF7EAFBFFF74CFDD7
:104D3000FFF7C6FB94F94400401C01D184F844906D
:104D400094F94500401C01D184F84590FFF7D8FB49
:104D500005A9684600F02CF8002820460AD0FFF785
:104D60009BFA00F0B7F92046FFF7E0F80028B3D02F
:104D70000020CBE7FFF7DAF890B104F124000599A1
:104D8000FFF7AAFC2046FFF787FA00F0A3F90028F6
:104D9000A2D1C8F80070BFF34F8FBFF36F8F9BE7AE
:104DA0002046FFF779FA00F095F995E704ED00E069
:104DB0002DE9F0410C46050011D0C4B1FFF780FB8E
:104DC000174BDA686E682068911B471C17D02F6854
:104DD0001B6A9F4219D0964217D8012410E0502038
:104DE00080F31188BFF34F8FBFF36F8FFEE7502022
:104DF00080F31188BFF34F8FBFF36F8FFEE700245E
:104E0000FFF77EFB2046BDE8F081884205D9401AB5
:104E100020602846FFF752FCF1E700202060DCE725
:104E2000280000202DE9FF5F8346DDE90E879946C3
:104E300016468A469000FFF765FA05001CD06420EC
:104E4000FFF760FA040014D00020256384F86100A5
:104E5000CDE90240CDE900874B46324651465846DF
:104E6000FEF7D5FF2046FEF779FE012004B0BDE82D
:104E7000F09F2846FFF758FB4FF0FF30F6E7F0B5FC
:104E800085B0DDE90B640A9DA6B1DCB1642700970B
:104E90002663022684F86160002604AFCDE902464D
:104EA000CDE90057FEF7B3FF2046FEF757FE049802
:104EB00005B0F0BD502080F31188BFF34F8FBFF3D2
:104EC0006F8FFEE7502080F31188BFF34F8FBFF341
:104ED0006F8FFEE70548416919B1006B18B10020DA
:104EE0007047012070470220704700002800002012
:104EF0000148C06870470000280000202DE9F041FB
:104F00002F4C0026206B28B1A069401CA0613046C0
:104F1000BDE8F081E5686D1CE56013D1606B006849
:104F200038B1502080F31188BFF34F8FBFF36F8FDC
:104F3000FEE7606BA16B6163A063206A401C206286
:104F4000FFF7DAF8A06ADFF87C80854209D3606B4E
:104F50000068A0B1606BC068C7687868854211D2EC
:104F6000A0622068C06A00EB800158F82100012887
:104F700000D90126E0690028C9D00126C7E74FF013
:104F8000FF30EDE7381DFFF741FAB86A18B107F1B5
:104F90001800FFF73BFAF96A0120226988401043A4
:104FA000206101EB810108EB8100391DFFF77CFADC
:104FB000F86A2168C96A8842C9D30126C7E7000098
:104FC00028000020180B002070B504004FF00001ED
:104FD00040D0214D2868844207D0502080F31188AA
:104FE000BFF34F8FBFF36F8FFEE7A06D38B1401E48
:104FF000A065636DE26A9A422CD040B12AE050204D
:1050000080F31188BFF34F8FBFF36F8FFEE7201D32
:10501000FFF7FCF9114A012150B9E06A00EB800367
:1050200052F8233023B92B6901FA00F083432B6136
:10503000606DE062C0F10700A061E06A2B69814009
:105040001943296100EB800002EB8000211DFFF76E
:105050002BFA0121084670BD28000020180B002003
:105060002DE9F041C068C468ACB104F118000746EE
:10507000FFF7CCF9154D286B0126A0B1394614482D
:10508000FFF712FAE06A2968C96A88421CD9012030
:10509000EE61BDE8F081502080F31188BFF34F8F9F
:1050A000BFF36F8FFEE7201DFFF7B0F9E16A2A69B1
:1050B00006FA01F01043286101EB81000449B4397C
:1050C00001EB8000211DDBE70020E2E72800002043
:1050D000CC0B00202DE9F0472C4D00242746286BEF
:1050E00038B1FFF7EDF9286B401E2863286B40B1FB
:1050F00046E0502080F31188BFF34F8FBFF36F8FCE
:10510000FEE7A968224E0120D1B3A6F1B40980467A
:105110003068E8B1F068C46804F11800FFF776F968
:10512000201DFFF773F9E06A2A6908FA00F11143BC
:10513000296100EB800109EB8100211DFFF7B4F923
:10514000E06A2968C96A8842E2D3C5F81C80DFE7B3
:105150000CB1FEF7D1FFAC6944B14646FFF7CEFE75
:1051600000B1EE61641EF9D10020A861E86938B190
:105170000849012738070860BFF34F8FBFF36F8FCF
:10518000FFF7BEF93846BDE8F08700002800002090
:10519000CC0B002004ED00E010B586B0FEF746FD14
:1051A000114C2068B8B100200390049005AA04A90E
:1051B00003A8FFF749F9DDE9032102208DE8070084
:1051C00000230AA10B48059AFFF759FE606010B151
:1051D00006B0012010BD502080F31188BFF34F8F1F
:1051E000BFF36F8FFEE7000064000020546D722053
:1051F0005376630075420008FEB51E461346020052
:10520000089D4FF0000014D0124C2768002F0FD0DB
:10521000CDE900130292062915DAFFF75BFE02289A
:105220004FF000030DD0002269462068FFF714FC00
:10523000FEBD502080F31188BFF34F8FBFF36F8FF7
:10524000FEE72A46F0E70023324669463846FFF774
:10525000B3FCFEBD640000204FF04070E1EE100A88
:10526000704700000C530008592F00080000000090
:1052700000000000800000000000000000000000AE
:1052800018530008E9340008000000000000000086
:10529000800000000000000000000000F452000840
:1052A000252B000800000000000000008000000026
:1052B000000000000000000000530008792C0008E6
:1052C000000000000000000080000000000000005E
:1052D0000000000000061016000610160000000076
:1052E0000000000001020304060708090000000096
:1052F0000102030452616E67696E675461736B004B
:1053000053657269616C5461736B0000646566611A
:10531000756C745461736B00546573745461736B72
:105320000000000044530008000000205801000065
:10533000C4010008845300085801002008500000F0
:1053400020020008011832018210037524F41AAA01
:105350000101163B0240A14A08081388070B1620DA
:105360000CC5192442801A0C2C19091320060A179F
:1053700020F129245A400819FD1AD42C0A16042CAD
:04538000011F000009
:040000050800018965
:00000001FF
