:020000040800F2
:1000000080530020290300085B330008B12B00084F
:1000100059330008F90800084545000800000000B1
:10002000000000000000000000000000690200085D
:10003000B909000800000000C5020008B13A000834
:100040004303000843030008430300084303000878
:10005000430300084303000843030008750A00082F
:10006000B10A0008ED0A0008290B00084303000844
:100070004303000843030008430300084303000848
:100080004303000843030008430300084303000838
:10009000430300084303000843030008650B0008FE
:1000A00043030008813B00084303000843030008A2
:1000B0008D3B0008993B0008A53B0008430300085E
:1000C00043030008430300084303000843030008F8
:1000D0004303000891440008430300084303000859
:1000E000310A00084303000843030008B13B00083D
:1000F000CD3B000843030008430300084303000806
:1001000043030008430300084303000843030008B7
:1001100043030008430300084303000843030008A7
:100120004303000843030008FD08000843030008D8
:100130004303000843030008430300084303000887
:100140004303000843030008430300084303000877
:10015000430300084303000809090008430300089B
:100160004303000843030008430300084303000857
:100170004303000843030008430300080000000095
:10018000430300084303000800F002F800F05CF8A5
:100190000AA090E8000C82448344AAF10107DA45E2
:1001A00001D100F051F8AFF2090EBAE80F0013F0D8
:1001B000010F18BFFB1A43F0010318471C8700000A
:1001C0003C8700000A444FF0000C10F8013B13F08C
:1001D000070408BF10F8014B1D1108BF10F8015BA0
:1001E000641E05D010F8016B641E01F8016BF9D193
:1001F00013F0080F1EBF10F8014BAD1C0C1B09D1EA
:100200006D1E58BF01F801CBFAD505E014F8016B5B
:1002100001F8016B6D1EF9D59142D6D370470000ED
:100220000023002400250026103A28BF78C1FBD8FF
:10023000520728BF30C148BF0B6070471FB508F098
:10024000ACF91FBD10B510BD00F0BAF91146FFF7AB
:10025000F5FF05F0DBFC00F0D8F903B4FFF7F2FF7F
:1002600003BC00F0DBF900002C4B19680868B0E80B
:10027000F04F80F30988BFF36F8F4FF0000080F3D9
:10028000118870470000000008480068006880F38B
:1002900008884FF0000080F3148862B661B6BFF39F
:1002A0004F8FBFF36F8F00DF00BF00BF08ED00E08E
:1002B000DFF80C00016841F470010160704700BF75
:1002C00088ED00E0EFF30980BFF36F8F134B1A68DE
:1002D0001EF0100F08BF20ED108A20E9F04F1060CB
:1002E00009B44FF0500080F31188BFF34F8FBFF374
:1002F0006F8F06F02DFC4FF0000080F3118809BCD1
:1003000019680868B0E8F04F1EF0100F08BFB0EC95
:10031000108A80F30988BFF36F8F70474400002074
:10032000EFF30580704700000948804709480047FF
:10033000FEE7FEE7FEE7FEE7FEE7FEE7FEE7FEE795
:10034000FEE7FEE704480549054A064B70470000F2
:10035000713B000889010008804D00208053002077
:10036000804F0020804F002053EA020C00F069808B
:100370002DE9F04B4FF00006002B1FBFB3FA83F5B9
:1003800003FA05F424FA05F65E4012BF1643B2FAEA
:1003900082F502FA05F4C5F120051EBF22FA05FC1C
:1003A00044EA0C04203556EA044C4FEA144418BFC2
:1003B000641C4FF000084FF00009904271EB030CF1
:1003C00039D3002919BFB1FA81F701FA07F6B0FA5B
:1003D00080F700FA07F6C7F120071EBF20FA07FCD6
:1003E00046EA0C062037B6FBF4FCA7EB0507103FE6
:1003F00007F01F0BCBF120060CFA0BFB2CFA06F6CC
:1004000044BFB3460026202FA4BF5E464FF0000B2A
:100410005BEA060C08BF4FF0010B19EB0B09ABFBB5
:10042000027C48EB0608C01B06FB02CC0BFB03CC8E
:1004300071EB0C01C1E70B46024641464846BDE858
:10044000F08B13B54FF000004FF00001AFF30080C8
:10045000BDE81C407047032A40F2308010F0030CC6
:1004600000F0158011F8013BBCF1020F624498BF07
:1004700011F801CB00F8013B38BF11F8013BA2F1A4
:10048000040298BF00F801CB38BF00F8013B11F01F
:10049000030300F02580083AC0F0088051F8043BBF
:1004A000083A51F804CBA0E80810F5E7121D5CBF2C
:1004B00051F8043B40F8043BAFF30080D20724BF5F
:1004C00011F8013B11F801CB48BF11F8012B24BFF3
:1004D00000F8013B00F801CB48BF00F8012B704742
:1004E00010B5203AC0F00B80B1E81850203AA0E8CF
:1004F0001850B1E81850A0E81850BFF4F5AF5FEA03
:10050000027C24BFB1E81850A0E8185044BF18C9B5
:1005100018C0BDE810405FEA827C24BF51F8043B5C
:1005200040F8043B08BF7047D20728BF31F8023BB0
:1005300048BF11F8012B28BF20F8023B48BF00F844
:10054000012B70474FF0000200B5134694469646C3
:10055000203922BFA0E80C50A0E80C50B1F12001D6
:10056000BFF4F7AF090728BFA0E80C5048BF0CC084
:100570005DF804EB890028BF40F8042B08BF7047E2
:1005800048BF20F8022B11F0804F18BF00F8012B54
:10059000704770477047704710B500F009F8006861
:1005A00010BD10B5044600F003F8046010BD000053
:1005B000004870471C4D0020004870471C4D00202B
:1005C0007546FFF7F9FFAE4605006946534620F031
:1005D0000700854618B020B5FFF7B4FEBDE82040FF
:1005E0004FF000064FF000074FF000084FF0000BEF
:1005F00021F00701AC46ACE8C009ACE8C009ACE8A2
:10060000C009ACE8C0098D46704710B50446AFF389
:1006100000802046BDE81040FFF71FBE01491820AA
:10062000ABBEFEE72600020070470121084603F03A
:1006300059B80000F0B5084C0646059D207808B171
:100640000020F0BD05480127277000F1080746602B
:1006500087E82E00F0BD0000A0010020E44C00203F
:100660002DED028B0A2005F00DFB9C484FF0FF3862
:100670004146006806F096FD99484146006806F03C
:1006800091FD012002F0EAFF03F07EFF022002F05C
:10069000E5FF03F059FFDFF84C924FF4005B4C4646
:1006A00000221146104602F065FF042002F0D6FF3A
:1006B00000F078FA4FEA080602F08EFE99ED040A7F
:1006C000B5EEC00AF1EE10FA01DD012000E030467F
:1006D000BDEEC00AC0EB4011C1EB002210EE100AC3
:1006E00001B2012002F046FF207005F0CBFA042091
:1006F00002F0B4FF00F056FA02F068FA0028DBD1ED
:1007000099ED070A4D46B5EEC00AF1EE10FA01DD8B
:10071000012000E0304640F2791110FB01F2BDEEFD
:10072000C00A10EE100A01B2032002F023FF20706D
:1007300095ED088AB5EEC08AF1EE10FA01DD0120D0
:1007400000E0304607F06FFB9FED671B53EC112B69
:1007500007F0BCFB07F00AFBBDEEC80A02B210EEC0
:10076000100A01B2042002F005FF60702178814276
:1007700000D9084605F086FA95ED050AB5EEC00ADF
:10078000F1EE10FA01DD012000E03046F1EE040A3E
:1007900000EB400030EE200A8200BDEEC00A10EEF1
:1007A000100A01B2022002F0E5FEDFF844A1207039
:1007B00001225946504600F0EAFC207805F062FA22
:1007C00047F6FF7732463946022002F0D3FE642016
:1007D00002F0AEFF03F0C0FE00223946022002F014
:1007E000C9FE0A2005F04EFA95ED060AB5EEC00ADC
:1007F000F1EE10FA01DD012000E03046BDEEC00A46
:1008000000EB4000820010EE100A01B2022002F05C
:10081000B1FE20700A2005F035FA6FF0C70002F033
:1008200087FF207805F02EFA02F0C4F900287FF443
:1008300037AF00220121042002F09CFE207005F059
:1008400021FA40F279123946032002F093FE9FED1F
:10085000290A02F079FF03F08BFE002239460320BB
:1008600002F088FE0A2005F00DFA0022594657468C
:10087000504600F08CFC4FF4807A012251463846F5
:1008800000F085FC052005F0FDF9002251463846B0
:1008900000F07DFC95ED060AB5EEC00AF1EE10FA07
:1008A00000DD0126F2EE040A06EB460030EE200AD7
:1008B0008200BDEEC00A10EE100A01B2022002F062
:1008C00059FE207005F0DEF96FF4BC7200210320A0
:1008D00002F050FE207005F0D5F9E1E62C00002072
:1008E00030000020BC010020BF7C09D1B5D5EF3F0E
:1008F0000010024000004842FEE70000014800F0FE
:10090000C5B900005C0B0020014800F0BFB9000031
:10091000BC0B002001681823CAB2103AB2FBF3F2F4
:10092000054B6FF30901032A9B5CC36500D9091DC0
:1009300081650846704700004887000810B50146E9
:1009400000208B698A6A4FF0C07453B1B3F5005F21
:1009500015D072B1012A0CD0022A0AD0032A09D17B
:1009600004E01AB1012A06D0022A03D1C96AC901DA
:1009700000D5012010BDC96AA142FAD010BD002ADD
:10098000F7D0012AF2D0022AF3D0032AF3D010BD07
:1009900030B50468256825F4802525600468636007
:1009A0008368402B036803D099600068C26030BD43
:1009B0009A600068C16030BD7047000010B5044601
:1009C0002DED028BF0EE408A03F002FBB0EE408A80
:1009D000B0EE680A204603F0FBFADFED120A134A74
:1009E00018EE901A20EE200A04EB440028EE201A9C
:1009F0000D4BBDEEC00A105C994207D1BDEC028BD5
:100A000010EE101ABDE8104002F046BF10EE102A9A
:100A1000BDEEC10ABDEC028BBDE8104010EE101A0D
:100A200002F0B8BE0000C84500FEFF46A601002047
:100A300070B50D4C2068400510D5251525600A209D
:100A400000F096FA2946094800F09CFB084930B1AD
:100A5000086908B1486980472560206870BD886AC8
:100A60000028F9D0C86AF6E7143C014000100240A3
:100A70007001002070B50B4C206880070FD502254F
:100A800025600A2000F074FA0221074800F07AFB82
:100A9000064928B1086800B180472560206870BD0C
:100AA0008869F8E7143C0140001002407001002002
:100AB00070B50B4C206840070FD5042525600A202F
:100AC00000F056FA0421074800F05CFB064928B103
:100AD000486800B180472560206870BDC869F8E7A4
:100AE000143C0140001002407001002070B50B4C16
:100AF000206800070FD5082525600A2000F038FA85
:100B00000821074800F03EFB064928B1886800B17B
:100B100080472560206870BD086AF8E7143C0140F2
:100B2000001002407001002070B50B4C2068C00618
:100B30000FD5102525600A2000F01AFA1021074869
:100B400000F020FB064928B1C86800B18047256045
:100B5000206870BD486AF8E7143C0140001002406C
:100B60007001002070B50B4C206880050FD565150D
:100B700025600A2000F0FCF92946074800F002FB36
:100B8000064928B1086900B180472560206870BD1A
:100B9000886AF8E7143C0140001002407001002010
:100BA00072B6FEE704484FF0FF320249006806F0D3
:100BB0005DBA0000E00100200800002000EB4001C9
:100BC00001EBC000024901EB800010F9030C7047F3
:100BD000C00000202DE9F0410446876D00F0DCFAEA
:100BE000064694F835000025022806D0802060656E
:100BF00084F834500120BDE8F0812068016821F0BC
:100C0000160101602068416921F080014161206C7A
:100C100008B9A06C20B12068016821F008010160CA
:100C20002068016821F0010101600CE000F0B4FAD5
:100C3000801B052807D920206065032084F8350033
:100C400084F83450D7E720680068C007EED194F8E4
:100C50005C103F208840B860012084F8350084F89B
:100C600034500020C7E790F83510022903D08021C6
:100C7000416501207047052180F835100068016842
:100C800021F0010101600020704700002DE9F843C8
:100C900004464FF00009CDF8009063484FF4165118
:100CA000A56D0068B0FBF1F72E6894F85C10082081
:100CB00000FA01F131420FD021680A6852070BD5C2
:100CC0000A6822F004020A6094F85C108840A86068
:100CD000606D40F00100606594F85C104FF0010811
:100CE00008FA01F0304208D021684969090604D5A4
:100CF000A860606D40F00200606594F85C1004200C
:100D00008840304208D021680968890704D5A86066
:100D1000606D40F00400606594F85C10102088401D
:100D2000304218D021680968090714D5A8602068E6
:100D30000168490304D50068000308D5A16C07E0E9
:100D40000168C90503D4016821F008010160216C24
:100D500009B12046884794F85C1020208840304232
:100D600031D021680968C9062DD5A86094F83500EE
:100D700005282068016806D0490347D500680003AC
:100D80001DD4616C1CE021F01601016020684169EE
:100D900021F080014161206C08B9A06C20B120686D
:100DA000016821F00801016094F85C103F20884040
:100DB000A86084F8358084F83490216D1FE0E16BE1
:100DC00009B120468847606D00282BD0606DC007B0
:100DD00014D0052084F835002068016821F0010155
:100DE00001600098401C0090B84203D82068006859
:100DF000C007F6D184F8358084F83490E16C00297E
:100E000010D001B02046BDE8F04308470168C9058D
:100E1000D5D4016821F01001016084F8358084F890
:100E20003490CCE7BDE8F883400000202DE9F04184
:100E3000044600F0B1F906465CB1022084F83500A2
:100E4000002584F834502068016821F00101016018
:100E50000DE00120BDE8F08100F09EF9801B05281F
:100E600005D920206065032084F83500F2E720686A
:100E70000068C007F0D12268116820480140D4E919
:100E800001031843D4E90336334318436369184315
:100E9000A3691843E3691843236A18430843616A46
:100EA000042903D1D4E90B131943084310602068C7
:100EB0004069666A20F0070130460E430127042886
:100EC0000CD1A06A0643E06A40B12046FFF736FD28
:100ED00020B14020606584F83570BAE7206846612B
:100EE0002046FFF717FD94F85C203F219140816078
:100EF000656584F835700020ACE700003F8010F095
:100F00002DE9F0410446866D90F834000025012853
:100F10000DD0012084F8340094F835700020012FA2
:100F200007D084F8340002252846BDE8F08102206D
:100F3000FBE7022784F8357060652046FFF728FD3F
:100F400094F85C103F208840B0602068016841F050
:100F500016010160206C20B12068016841F0080191
:100F600001602068016841F001010160DCE70000D8
:100F700070B5044600F010F90546601C02D0044824
:100F80000078044400F008F9401BA042FAD370BD79
:100F9000340000202DE9F84FDFF8BCA10022012524
:100FA00003264FF00F090AF1040BAAF1040E00BF4B
:100FB0000B6805FA02F42340A34270D10F7907F0C1
:100FC0000307012F01D0022F16D187684FEA42088C
:100FD00006FA08FC27EA0C07D1F80CC00CFA08FC4A
:100FE0004CEA070CC0F808C04768A7430C79C4F363
:100FF000001494403C4344600C79E443A4070AD0B5
:10100000C4684FEA420C06FA0CF7BC438F6807FA33
:101010000CF72743C7600C7904F00304022C12D1AB
:10102000D40800EB840CDCF820405707FF0E09FAC7
:1010300007F824EA0804D1F8108008FA07F848EA0B
:101040000408CCF8208004684FEA420C06FA0CF73A
:10105000BC430F7907F0030707FA0CF72743076033
:101060004C6814F4403F70D03C4C276847F48047EC
:101070002760246822F0030704F480440094384C6D
:1010800007EB040CDCF8084897074FEA177809FAD1
:1010900008F7BC43334FB84202D1002724E054E0A4
:1010A000314FB84201D101271EE0304FB84201D183
:1010B000022719E02E4FB84201D1032714E02D4F2B
:1010C000B84201D104270FE02B4FB84201D10527C8
:1010D0000AE02A4FB84201D1062705E0284FB8425E
:1010E00001D1072700E0082707FA08F72743CCF8C3
:1010F0000878DAF800405746D1F804C09C435FEA0C
:10110000CC2C00D51C433C60DBF800405F46D1F896
:1011100004C09C435FEA8C2C00D51C433C60DEF885
:1011200000407746D1F804C09C435FEA8C3C00D570
:101130001C433C60084F083F3C68D1F804C09C4306
:101140005FEACC3C00D51C433C60521C102AFFF4E3
:101150002FAFBDE8F88F0000083C01404438024042
:10116000003001400000024000040240000802403C
:10117000000C02400010024000140240001802401F
:10118000001C02400069084000D0012070470AB1ED
:10119000816170470904FBE70148806870470000DF
:1011A0003400002002488168027811448160704751
:1011B000340000200B4810B5016841F40071016053
:1011C000016841F480610160016841F4807101604F
:1011D000032000F08DF80F2000F006F800F03EF834
:1011E000002010BD003C024010B5014688B000222E
:1011F000192000F05DF8192000F04CF81348002485
:10120000016841F001010160006805A900F00100DA
:101210000690684600F018F900F046F90C494000C5
:10122000B0FBF1F10C480B4A491E026040F2E73274
:10123000C0E90324C0E9011400F0A2FB10B10120B1
:1012400008B010BD044800F02FFCF9E74438024014
:1012500040420F00000001401C0C00200C4882B0EE
:10126000016841F480410160006800F48040009012
:101270000748001F016841F08051016000680022AA
:1012800000F0805000900F21901E02B000F010B8C6
:1012900044380240002809DB00F01F020121914080
:1012A0004009800000F1E020C0F800117047000004
:1012B000F0B40E4B1B680C46C3F30223C3F10705C1
:1012C000042D00D90425191D072901D2002300E0AF
:1012D000DB1E012606FA05F1491E214099409E4079
:1012E000761E16403143F0BC03F00ABA0CED00E064
:1012F000064900F0070208684FF6FF03184040EA6D
:101300000220034A10430860704700000CED00E023
:101310000000FA052DE9F0470E46050065D0DFF81C
:101320001481D8F80000F7B200F00700B04207D2ED
:1013300088F80070D8F8000000F00700B04254D1DF
:1013400028683D4C810712D5400703D5206840F43A
:10135000E05020602878000703D5206840F4604002
:1013600020602068A96820F0F000084320602878F9
:10137000C0072DD0304968680839012812D00228EA
:1013800013D0032811D00968890700292DDA2168B4
:1013900021F0030101432160FFF7FEFE814641F287
:1013A000883A0EE009688903EFE709688901ECE7EC
:1013B000FFF7F2FEA0EB0901514502D90320BDE879
:1013C000F0872068696800F00C00B0EB810FEFD166
:1013D000D8F80010404601F00701B14207D9077064
:1013E000006800F00700B04201D00120E7E728784C
:1013F000400705D52068E96820F4E05008432060E4
:101400002878000706D52068296920F4604040EA62
:10141000C100206000F058F82168084AC1F30311A8
:10142000515CC8400649086006480068FFF7DCFECA
:101430000020C4E7003C0240083802405087000802
:1014400040000020380000200F2202600C4A136880
:1014500003F003034360136803F0F0038360136831
:1014600003F4E053C36012684FF4E05303EAD2027E
:1014700002610448006800F007000860704700003F
:1014800008380240003C02400448054900680968E9
:10149000044AC1F38221515CC840704740000020DB
:1014A0000838024060870008044805490068096858
:1014B000044AC1F34231515CC840704740000020EB
:1014C0000838024060870008154810B5006810F021
:1014D0000C02144813D04110042A0FD0082A0ED150
:1014E0000F4C241F2268236802F03F025B0207D5DD
:1014F0002068C0F38810A0FB010106E0084610BD7B
:101500002168C1F38811A1FB00010023FEF72CFF25
:101510002168C1F30141491C4900B0FBF1F010BD45
:10152000083802400024F4002DE9F84F04006ED082
:101530002078DFF84C93C007A9F104054AD009F1DF
:1015400004000168C1F38101012908D00068C0F3DB
:10155000810002280AD1D9F80000400206D5286887
:10156000800337D560680028E1D033E06068B0F5CB
:10157000803F10D0B0F5A02F286810D020F4803024
:101580002860286820F4802028606068A8B1FFF7F0
:1015900003FE06460DE0286840F48030F4E740F48E
:1015A00080202860F7E700BFFFF7F6FD801B642866
:1015B00073D828688003F7D50CE0FFF7EDFD0646E9
:1015C00005E000BFFFF7E8FD801B6428F0D828681D
:1015D0008003F7D42078DFF8AC8280074FF0000A50
:1015E0003ED5A748001D016811F00C0F08D0006817
:1015F000C0F3810002280BD1D9F80000400207D4C3
:101600002868800716D5E068012800D112E033E190
:10161000E068B8B10120C8F80000FFF7BDFD06463C
:1016200005E000BFFFF7B8FD801B0228C0D828687E
:101630008007F7D52868216920F0F80040EAC1004A
:1016400028600DE0C8F800A0FFF7A6FD064604E0FC
:10165000FFF7A2FD801B02281FD828688007F7D457
:101660002078000722D5864F87486169703771B1AD
:1016700001210160FFF790FD064604E0FFF78CFDB5
:10168000801B022809D838688007F7D50EE0C0F81B
:1016900000A0FFF781FD064605E082E0FFF77CFD34
:1016A000801B02287DD838688007F7D4207840074F
:1016B00068D5DFF8CCB100270BF13C0BDBF800005C
:1016C000C0000BD4DBF8001041F08051CBF80010C3
:1016D000DBF80000012700F0805000906B4E30686E
:1016E000C00510D4306840F480703060FFF754FDBE
:1016F000009005E0FFF750FD0099401A022850D8ED
:101700003068C005F6D55E4EA0686C3601280FD053
:101710000528306810D020F001003060306820F0DB
:1017200004003060A068B8B1FFF736FD00900FE00C
:10173000306840F00100F4E740F004003060F7E763
:10174000FFF72AFD0099411A41F28830814266D89C
:1017500030688007F4D50EE0FFF71EFD009007E02B
:10176000FFF71AFD0099411A41F28830814256D89C
:1017700030688007F4D42FB1DBF8001021F08051DD
:10178000CBF80010A069C8B33D49091D0968C1F331
:10179000810102294AD00228504607D0C8F86000CB
:1017A00000E03CE0FFF7F8FC04463BE04746C8F8A1
:1017B0006000FFF7F1FC064605E000BFFFF7ECFC18
:1017C000801B02282BD828688001F7D4D4E90701B0
:1017D0000843A16A2E4A490802EB0141626A41EAC4
:1017E0008211084394F82C1040EA0161C9F80010F6
:1017F00001203866FFF7D0FC044606E03EE000BF5B
:10180000FFF7CAFC001B022809D828688001F7D519
:1018100034E000BFFFF7C0FC001B022802D9032000
:10182000BDE8F88F28688001F4D427E00128F7D0BC
:10183000D9F80000E26900F4800191421CD1226ACB
:1018400000F03F01914217D147F6C071626A014032
:10185000B1EB821F10D1A26A4FF0FF3300F4403188
:1018600003EB5202B1EB024F06D194F82C1000F0BA
:101870007060B0EB016F01D00120D1E70020CFE70D
:101880000438024000004742800E4742007000408A
:101890000000FFFF70477047704710B590F83C207C
:1018A000012A22D0012280F83C20CA688C6822F4E8
:1018B000407222434C6822F4806222430C6822F476
:1018C000006222430C6922F4805222434C6922F4C4
:1018D00000522243C969002322F480420A4301686E
:1018E0004A6480F83C30002010BD022010BD00008A
:1018F00070B590F83C20012A32D0012480F83C4099
:10190000022280F83D2003685A689D6822F0700624
:101910000A6832435A60134B02689A4214D0B2F1FB
:10192000804F11D0104B9A420ED0104B9A420BD0E0
:101930000F4B9A4208D00F4B9A4205D00E4B9A4259
:1019400002D00E4B9A4204D1496825F08003194316
:10195000916080F83D40002180F83C10084670BD41
:10196000022070BD0000014000040040000800405B
:10197000000C0040000401400040014000180040FD
:1019800010B5040003D094F83D0010B10EE0012022
:1019900010BD002084F83C00204602F063FAA06CE1
:1019A00008B91148A064014620468847022084F8FF
:1019B0003D00211D206802F00FF9012084F8460047
:1019C00084F83E0084F83F0084F8400084F8410029
:1019D00084F8420084F8430084F8440084F8450009
:1019E00084F83D00002010BDED19000810B586B048
:1019F000044614216846FEF7A5FD264B2268002107
:101A000025489A420ED1016841F002010160006848
:101A1000002200F00200059005211D20FFF748FC80
:101A20001D2033E01D4B9A4209D1016841F010019D
:101A30000160006800F01000059006B010BD184B62
:101A40009A42FAD1026842F040020260006800F057
:101A50004000059010481038026842F0020202600F
:101A6000006800F002000590D81300900220CDE934
:101A700001010920CDE9031069460A48FFF78AFAF7
:101A8000002205212B20FFF713FC2B20FFF702FC7F
:101A9000D3E700000004004040380240001000403E
:101AA000001800400004024090F83D10012901D0C8
:101AB00001207047022180F83D100168CA6842F099
:101AC0000102CA6000681149884214D0B0F1804F09
:101AD00011D00F4988420ED00E4988420BD00E49D2
:101AE000884208D00D49884205D00D49884202D06D
:101AF0000C49884204D1816801F00701062903D00E
:101B0000016841F0010101600020704700000140C0
:101B10000004004000080040000C004000040140A8
:101B200000400140001800400168CA6822F001022C
:101B3000CA6001680A6A41F211131A4207D10A6A9F
:101B40009B101A4203D10A6822F001020A600121A7
:101B500080F83D100020704770B5044690F83C00B6
:101B60000025012817D0012684F83C60022084F863
:101B70003D002068826822F0770222F47F42826072
:101B80000868502838D00DDC20284FD005DC90B3F1
:101B9000102811D14AE0022070BD302846D04028DC
:101BA0000AD13BE060282FD070280DD0B0F5805FBF
:101BB00003D0B0F5005F12D0012584F83D6000200D
:101BC00084F83C00284670BDCB68D1E9012120682B
:101BD00002F073F82068816841F0770109E0CB6872
:101BE000D1E90121206802F068F82068816841F499
:101BF00080418160E1E719E0CA684968206802F025
:101C000067F95021206806E0CA684968206802F038
:101C1000B1F96021206802F05AF8CEE7CA68496835
:101C2000206802F055F940212068F4E72268014657
:101C30001046F0E77047000030B52E4C002200BF80
:101C400002EBC20104EB81010568CB68AB424BD1CA
:101C50000B7E012B02D0022B40D045E00D69002302
:101C60002D686B620B691B685B6A4B834B69BBB168
:101C7000042B1BD0082B0B691B681D6A1CD025F494
:101C800020451D624B69D3B1042B1ED0082B0B6974
:101C90001B681D6A1FD045F400551D62022322E017
:101CA0000B691B681D6A25F00A05EAE70B691B68CA
:101CB0001D6A25F0A005E4E725F42065E1E70B693E
:101CC0001B681D6A45F00205E7E70B691B681D6A82
:101CD00045F02005E1E745F40075DEE70B691B6878
:101CE0005B6A8B8303230B76521C12F0FF02A7D092
:101CF00030BD0000E44C002070472DE9F04105465E
:101D000090F83C0000260C46012810D0012085F8F0
:101D10003C0072B1042A1CD0082A2CD00C2A50D0C6
:101D20000126002085F83C003046BDE8F081022005
:101D3000FBE7D4E90012E368286802F0DBF82868C2
:101D4000816921F00C01816128688169A2681143D1
:101D50000FE0D4E90012E368286802F01DF9286852
:101D6000816921F44061816128688169A26841EA42
:101D700002218161D5E72868D4E9002C277B016A1C
:101D800021F480710162C169036A21F0030141EA13
:101D90000C0121F0F00C39074FF420674CEA116177
:101DA00023F4206307EA02221A43C1610262286811
:101DB000C16921F00C01C1612868C169A2681143A1
:101DC00028E02868D4E90027E168036A23F48053F7
:101DD0000362D0F81CC0036A2CF4407C4CEA07274D
:101DE0004FF6FF7C27F470470CEA013139434FF47A
:101DF000204723F4204307EA02321A43C1610262FA
:101E00002868C16921F44061C1612868C169A2687C
:101E100041EA0221C16184E710B5040003D094F8BF
:101E20003D0010B10EE0012010BD002084F83C0000
:101E3000204602F017F8206D08B9114820650146C8
:101E400020468847022084F83D00211D206801F0CB
:101E5000C3FE012084F8460084F83E0084F83F0069
:101E600084F8400084F8410084F8420084F843007C
:101E700084F8440084F8450084F83D00002010BD3B
:101E8000851E00087047000030B50446002551B19A
:101E900004290DD0082910D094F8410094F8452069
:101EA000012811D10EE094F83E0094F84220F7E7A3
:101EB00094F83F0094F84320F2E794F8400094F837
:101EC0004420EDE7012A01D0012030BD022059B1A4
:101ED000042912D0082919D084F8410084F845005B
:101EE0000C2944D0012540E084F83E0084F84200EB
:101EF0002068C26842F0020210E084F83F0084F8D3
:101F000043002068C26842F0040207E084F8400001
:101F100084F844002068C26842F00802C2600122CE
:101F2000206801F0BDFE14492068884214D0B0F149
:101F3000804F11D0114988420ED0114988420BD0F0
:101F40001049884208D01049884205D00F4988427C
:101F500002D00F49884204D1816801F007010629A7
:101F600003D0016841F001010160284630BD2068BE
:101F7000C26842F01002D1E70000014000040040B6
:101F800000080040000C00400004014000400140F7
:101F90000018004070B50D0004464FF0000607D051
:101FA000042D0AD0082D0DD00C2D10D001262FE0C5
:101FB0002068C16821F002010DE02068C16821F0AD
:101FC000040108E02068C16821F0080103E02068EE
:101FD000C16821F01001C16000222946206801F08B
:101FE0005FFE2068016A41F21112114207D1016AB5
:101FF0009210114203D1016821F00101016001201A
:1020000045B1042D09D0082D0AD004F8410F2071E4
:10201000304670BD04F83E0FF9E704F83F0FF6E7CD
:1020200004F8400FF3E770B50446006801694FF00B
:102030000005C943890717D4C168C943890713D468
:10204000E91E01610120207720688069800702D0A5
:10205000D4F8901005E0D4F8981020468847D4F8BA
:102060009C1020468847257720680169C9434907A5
:1020700019D4C168C943490715D46FF0040101613F
:10208000022020772068806910F4407F02D0D4F8C5
:10209000901005E0D4F8981020468847D4F89C109A
:1020A00020468847257720680169C943090718D465
:1020B000C168C943090714D46FF008010161042005
:1020C00020772068C069800702D0D4F8901005E01E
:1020D000D4F8981020468847D4F89C1020468847AA
:1020E000257720680169C943C90619D4C168C94365
:1020F000C90615D46FF0100101610820207720680F
:10210000C06910F4407F02D0D4F8901005E0D4F8F4
:10211000981020468847D4F89C1020468847257799
:1021200020680169C943C90709D1C168C943C90702
:1021300005D1891E0161D4F88010204688472068A7
:102140000169C94309060AD4C168C943090606D40E
:102150006FF080010161D4F8B010204688472068F4
:102160000169C94349060AD4C168C943490606D46E
:102170006FF040010161D4F888102046884720683C
:102180000169C94389060CD4C168C943890608D4CA
:102190006FF0200101612046D4F8A810BDE870401E
:1021A000084770BD10B586B0044614216846FEF796
:1021B000C9F923682A490222B3F1804F12D0294C71
:1021C0002948A34224D10B6843F004030B6009683B
:1021D000029201F0040105914021CDE90012039221
:1021E00004923BE0086840F0020008600868029230
:1021F00000F0020005904FF40060CDE900020120DC
:10220000CDE9032069461948FEF7C4FE06B010BDAB
:10221000174CA34210D1086840F008000860086815
:10222000029200F0080005905814CDE900020392D4
:10223000694610480492E7E70F4CA342E6D10B68C9
:1022400043F004030B600968029201F00401059158
:102250006115CDE900120321CDE903216946D3E7D9
:1022600030380240000400400008024000040240F0
:1022700000080040000C024000040140704770B5A7
:10228000044690F83C0000260D4601280FD001209E
:1022900084F83C006AB1042A1DD0082A2FD00C2AE9
:1022A0003FD00126002084F83C00304670BD02205B
:1022B00070BD206801F014FD2068816941F00801BB
:1022C00081612068816921F0040181612068816950
:1022D0002A69114311E0206801F032FD206881690C
:1022E00041F4006181612068816921F4806181612C
:1022F000206881692A6941EA02218161D2E7206868
:1023000001F054FD2068C16941F00801C1612068F5
:10231000C16921F00401C1612068C1692A691143C2
:1023200011E0206801F076FD2068C16941F4006188
:10233000C1612068C16921F48061C1612068C169FF
:102340002A6941EA0221C161ACE7000010B504002E
:1023500003D094F83D0010B10EE0012010BD002024
:1023600084F83C00204601F07DFD206E08B911483C
:102370002066014620468847022084F83D00211D42
:10238000206801F029FC012084F8460084F83E0012
:1023900084F83F0084F8400084F8410084F842004B
:1023A00084F8430084F8440084F8450084F83D0034
:1023B000002010BDB923000808B501682248B1F11A
:1023C000804F11D0214A91421DD1016841F0040192
:1023D00001600068002200F00400009005211E202A
:1023E000FEF766FF1E2029E0016841F0010101604F
:1023F0000068002200F00100009005211C20FEF77B
:1024000057FF1C201AE0124881421BD10E48001DC4
:10241000016841F0020101600068002200F0020042
:10242000009005212B20FEF743FF2B20FEF732FF03
:10243000002205212C20FEF73BFF2C20BDE80840A0
:10244000FEF728BF08BD00004038024000080040E9
:10245000000401407047704710B50446022249B19C
:1024600004290ED0082913D094F84100012816D071
:10247000012010BD94F83E000128F9D184F83E20D7
:102480000FE094F83F000128F2D184F83F2008E0E3
:1024900094F840000128EBD184F8402001E084F852
:1024A00041200122206801F0FBFB16492068164AF2
:1024B000884201D0904203D1436C43F4004343640B
:1024C0002068884213D0B0F1804F10D00F49884265
:1024D0000DD00F4988420AD00E49884207D0904259
:1024E00005D00D49884202D00C49884204D1816848
:1024F00001F00701062903D0016841F001010160E4
:10250000002010BD00000140000401400004004014
:1025100000080040000C004000400140001800404E
:1025200030B504460D460068002201F0B9FB194B96
:1025300041F2111120688A10984202D0164B98423D
:1025400009D1036A0B4206D1036A134203D1436CDB
:1025500023F4004343642068036A0B4206D1016AF6
:10256000114203D1016821F00101016001203DB158
:10257000042D08D0082D09D084F84100002030BD7A
:1025800084F83E00FAE784F83F00F7E784F840005B
:10259000F4E7000000000140000401400068034926
:1025A000884201D1FEF7FEBD7047000000000140E7
:1025B000704710B5002372B190F83C40012C0CD04C
:1025C000012480F83C4090F83D40012C07D090F861
:1025D0003D408CB364E0012010BD022010BD1B29DA
:1025E0005ED2DFE801F041434547494B4D4F51531F
:1025F0005557595B0E1114171A1D2023262A2D300A
:102600003300C0F880204CE0C0F8842049E0C0F8D6
:10261000882046E0C0F88C2043E0C0F8902040E0DD
:10262000C0F894203DE0C0F898203AE0C0F89C2023
:1026300037E0C0F8A02034E00BE0C0F8A42030E080
:10264000C0F8A8202DE0C0F8AC202AE0C0F8B020E7
:1026500027E00E2924D2DFE801F007090B0D0F1146
:10266000131517191B1D1F2182641AE0C26418E09C
:10267000026516E0426514E0826512E0C26510E072
:1026800002660EE042660CE082660AE0C26608E07E
:10269000026706E0426704E0826702E0C26700E08A
:1026A0000123002180F83C10184610BD7047704788
:1026B00038B5044690F83E00202822D181B17AB185
:1026C00094F83C0001281CD0012084F83C002063D1
:1026D000204601F093FE002803D1216B012901D08F
:1026E000012038BD21680A684968009121680C31D1
:1026F00051E8002F42F0100241E80023002BF5D1F1
:1027000038BD022038BD704770477047704770472A
:10271000F8B5016804460868CA684B6910F00F0FE5
:102720004FF0000556D003F0010602F490773743CE
:1027300061D0C10705D0D10503D5216C41F001015D
:102740002164410705D5D90703D0216C41F002016E
:102750002164810705D5D90703D0216C41F004011C
:102760002164010707D502F02001314303D0216C19
:1027700041F008012164216C00293BD0800604D57A
:10278000900602D5204601F053FD20684069216C77
:10279000C0F38010090700D440B3204601F0ECFCE0
:1027A0002068406940061ED52068143050E8001F9C
:1027B00021F0400140E80012002AF5D1A06B90B151
:1027C0006C490165A06BFEF74EFA002812D0A06B91
:1027D000016DCBE083060ED593060CD52046BDE8EF
:1027E000F84001F025BD2046616DBFE0616D2046D7
:1027F00088472564F8BD266B2023012E7BD1C606B1
:1028000079D5D60677D508684868009048694006AB
:1028100040D5A16B086840680004000CEAD0A28D86
:102820008242E7D9E085C869B0F5807F2DD0206865
:102830000C3050E8001F21F4807140E80012002A9B
:10284000F5D12068143050E8001F21F0010140E864
:102850000012002AF5D12068143050E8001F21F042
:10286000400140E80012002AF5D184F83E3025638B
:1028700020680C3050E8001F21F0100140E80012E1
:10288000002AF5D1A06BFEF7A5F9A08DE18D401AC5
:1028900081B229E0A08DE18D401A81B2E08D00283F
:1028A000A8D00029A6D020680C3050E8002F22F4D0
:1028B000907240E80026002EF5D12068143050E8D0
:1028C000002F22F0010240E80026002EF5D184F806
:1028D0003E30256320680C3050E8002F22F01002B3
:1028E00040E80023002BF5D1A26E01B02046BDE8E0
:1028F000F0401047FFE705062CD515062AD594F8B9
:102900003D0021287FF476AFA068B0F5805F01D14B
:102910002069B0B1206A411C2162216800784860BA
:10292000E08C401E0004000CE084EBD12068C168FC
:1029300021F08001C1602068C16841F04001C160A0
:10294000F8BD206A0088C0F308004860206A801C37
:102950002062E5E74006F3D55006F1D5CA68204667
:1029600022F04002CA6084F83D30A16C01B0BDE89D
:10297000F04008474D40000870B5040004D094F8BA
:102980003D00002510B10DE0012070BD84F83C50E1
:10299000204601F027FCE06E08B91348E0660146C6
:1029A00020468847242084F83D002068C16821F42F
:1029B0000051C160204601F09BFC2068016921F4B0
:1029C000904101612068416921F02A01416120683C
:1029D000C16841F40051C1602564202084F83D00A5
:1029E00084F83E00002070BDED2900082DE9F04379
:1029F00087B0064614216846FDF7A4FD31493068CA
:102A000088425BD130480025016841F01001016027
:102A1000006800F0100005902B481438016841F060
:102A2000010101600068694600F0010005904FF463
:102A3000C0600090022001900290032003900720C4
:102A400004902248FEF7A6FA224C21484FF0006776
:102A50002060C4E901754FF48068C4E903586561DA
:102A60004FF48039A561C4E9075920466562FEF735
:102A7000DDF908B1FEF794F8B463A663154C144869
:102A800060347830E4E802074020A4E821011148CE
:102A900044F814596030A561C4E907596562FEF72E
:102AA000C5F908B1FEF77CF87463002205212520E2
:102AB000A663FEF7FDFB2520FEF7ECFB07B0BDE8A3
:102AC000F083000000100140443802400000024042
:102AD000406402405C0B00200022A1B190F83C3021
:102AE000012B16D0012380F83C3090F83D30202B8C
:102AF00011D0016C41F0200101640122002180F815
:102B00003C1010467047016C41F020010164012027
:102B10007047022070478166F0E7704770470000F9
:102B200070B5044690F83D00202836D191B38AB3A1
:102B300094F83C00012830D0012084F83C00216248
:102B4000A284E28400252564212084F83D00636B83
:102B50001348D863636B13481864636B1248D864D6
:102B6000606B134605652668606B321DFEF7C8F979
:102B700021686FF04000086084F83C5020681430F1
:102B800050E8001F41F0800140E80012002AF5D112
:102B9000002070BDFFE70120FBE70220F9E70000FD
:102BA00035410008734100085940000870477047DC
:102BB000FEE7000008B5044800226946006804F0FA
:102BC00055FAC0B208BD00000C0000200948A0F171
:102BD0002401C278B1F90230323A9A4208D14079E0
:102BE000B1F90610A0F59670884201D10020704717
:102BF00001207047E001002010B50024204600F0BD
:102C000005F8641CE4B2042CF8D310BD064900EBAF
:102C10004002054B885C1144012249781B1F5A541D
:102C2000024900F039BE0000A601002000B5FFFFF8
:102C30008AB000F0C7FE1E480DF1100C194B1A4A5D
:102C40001A498CE80F001E481A4B1B4A1B498DE895
:102C50000F001C4B1C4A1D491D4800F0F5FE1D4D80
:102C60004FF0FF36324608A9286804F0FFF9012822
:102C7000F8D19DF820400CB9FFF7BEFFBDF8231036
:102C8000BDF8210049BA09B200EE101A40BA00B2EC
:102C9000F8EEC00A00EE100A2046B8EEC00AFDF7B2
:102CA0008DFEDFE76D3500085D3500084D35000805
:102CB0003D3500082D3500081D3500086535000834
:102CC000553500084535000835350008253500081C
:102CD00015350008040000200D4808B5016841F4CE
:102CE000800101600068002200F48000009005214E
:102CF0003A20FEF7DDFA3A20FEF7CCFA0022052151
:102D00004620FEF7D5FABDE808404620FEF7C2BAD5
:102D10003038024030B5AFB000252A9501212AA8ED
:102D20002B9502F0BBFF354C0121E0622C952CA8BD
:102D30002D9502F0B3FF206300221121082003F03B
:102D4000ECFF206000220521082003F0E6FF606010
:102D500000220C21082003F0E0FFA06000220421E3
:102D6000022003F0DAFFE06000220421022003F0D9
:102D7000D4FF20611C2222496846FDF7B1FB0021E7
:102D8000684602F0B3FF1E4960611C221C3107A88F
:102D9000FDF7A6FB002107A802F0A8FF1849A061D3
:102DA0001C2238310EA8FDF79BFB00210EA802F073
:102DB0009DFF1349E0611C22543115A8FDF790FBDB
:102DC000002115A802F092FF0D4920621C227031EB
:102DD0001CA8FDF785FB00211CA802F087FF08490D
:102DE00060621C228C3123A8FDF77AFB002123A806
:102DF00002F07CFFA0622FB030BD00000000002078
:102E0000A08600082DE9F04F87B014216846FDF731
:102E100099FB81480024016841F0100101600168BC
:102E200001F010010591016841F080010160016825
:102E300001F080010591016841F002010160016823
:102E400001F002010591016841F00801016001688B
:102E500001F008010591016841F004010160016879
:102E600001F004010591016841F001010160006871
:102E7000DFF8A89100F00100059000224FF4065100
:102E80004846FEF784F90122D1034846FEF77FF950
:102E9000DFF88CA14FF48068002241465046FEF7CF
:102EA00076F900224FF484415E48FEF770F9012262
:102EB00049F201015B48FEF76AF9DFF86CB10022C4
:102EC00080215846FEF763F901224FF4E851584635
:102ED000FEF75DF94FF48077002239465348FEF73C
:102EE00056F940F21E6000904FF44410CDE9010401
:102EF00069464846FEF74EF80420CDE900046946CD
:102F000050460294FEF746F848F280000125032659
:102F1000CDE90005CDE9024669464846FEF73AF894
:102F20004FF404500090CDE901546946484603949B
:102F3000FEF730F8CDF80080CDE9015469465046DF
:102F40000394FEF727F844F201200090CDE90154E4
:102F5000694634480394FEF71DF84FF41040CDE95C
:102F60000005CDE9024669462E48FEF713F84FF4F6
:102F7000E4500090CDE90154694658460394FEF7A9
:102F800009F800970396CDE9015469465846FEF7C3
:102F900001F80097CDE90154694624480394FDF7F0
:102FA000F9FF1E208DE8310069461E48FDF7F2FF4B
:102FB000002205210720FEF77BF90720FEF76AF9BA
:102FC000002205210820FEF773F90820FEF762F9B8
:102FD000002205210920FEF76BF90920FEF75AF9B6
:102FE000002205210A20FEF763F90A20FEF752F9B4
:102FF000002205211720FEF75BF91720FEF74AF99A
:10300000002205212820FEF753F92820FEF742F977
:1030100007B0BDE8F08F00003038024000100240D9
:1030200000040240000C0240000802400000024080
:1030300010B588B000241D480594069407940494A4
:103040000094019402941849039401605321C0E94B
:1030500001144FF6FF71C0E9031480218161FEF76E
:103060008FFC08B1FDF79CFD4FF48050049004A93B
:103070000E48FEF771FD08B1FDF792FD0B48FEF713
:10308000CBFE08B1FDF78CFD0120CDE90040029494
:103090000422694605480394FEF72FFE002801D05C
:1030A000FDF77EFD08B010BD00180040340A002076
:1030B00010B58AB0002407941C2168460894FDF7D7
:1030C00041FA17484FF0804101605321C0E90114D3
:1030D00040F2E731C0E903148461FFF737F908B122
:1030E000FDF75EFD079407A90D480894FEF700FC64
:1030F00008B1FDF755FD702000904FF4FA70CDE94E
:1031000001040C22694606480494FFF7B8F808B198
:10311000FDF746FD0248FFF745F80AB010BD000074
:10312000B006002010B58EB00024079408940994CE
:103130000A940B941C2168460C94FDF703FA20486E
:103140001E4901605321C0E9011440F2E731C0E992
:10315000031480218161FEF713FC08B1FDF720FD07
:103160004FF48050079007A91548FEF7F5FC08B109
:10317000FDF716FD1248FFF7E9F808B1FDF710FD5D
:103180000B940BA90E480C94FEF7B2FB08B1FDF7A7
:1031900007FD602000904FF4FA70CDE90104002291
:1031A000694607480494FFF76AF808B1FDF7F8FC90
:1031B0000348FEF7F7FF0EB010BD0000000400400A
:1031C0006407002010B58AB0002407941C216846CB
:1031D0000894FDF7B7F91748154901605321C0E974
:1031E000011440F2E731C0E903148461FFF7AEF83F
:1031F00008B1FDF7D5FC079407A90E480894FEF71F
:1032000077FB08B1FDF7CCFC702000904FF4FA700A
:10321000CDE901040422694606480494FFF72FF81B
:1032200008B1FDF7BDFC0348FEF7BCFF0AB010BDB6
:1032300000080040180800201CB500240E48009427
:103240000C49019401605321C0E901144FF6FF714C
:103250008461C160FEF794FB08B1FDF7A1FC009406
:10326000694605480194FEF743FB002801D0FDF7AD
:1032700097FC1CBD00100040CC08002010B592B097
:1032800000240F941C2108A81094FDF75BF920215D
:103290006846FDF757F921481F490160A721C0E999
:1032A000011440F2E731C0E9031444618461FFF77F
:1032B0004DF808B1FDF774FC0F940FA9174810944E
:1032C000FEF716FB08B1FDF76BFC702008904FF479
:1032D000FA70CDE909040C940D940C2208A90F484A
:1032E0000E94FEF7CCFF08B1FDF75AFC00944FF4A2
:1032F0000050CDE9044002940194039469460748C4
:103300000794FEF7CAFA08B1FDF74AFC0348FEF736
:1033100049FF12B010BD00000004014080090020E8
:103320000C4810B50A4901604FF4E13141600021B9
:1033300081600C22C160C0E904128161C161FFF7A4
:103340001BFB002803D0BDE81040FDF729BC10BDD1
:1033500000100140E80A0020FEE7FEE72DED028B99
:1033600082B00420C1010090154B164A1648FDF7A3
:1033700061F9164C164D9FED178A4FF0FF3620600D
:103380002068C8B1002201A9286803F06FFE2068F8
:1033900001F084F82068DDED010A90ED080AB4EE32
:1033A000E00AF1EE10FA07DD0023324601A9286891
:1033B00003F04CFD8DED018A642002F063FCDFE731
:1033C000340A002000180040000C0240B401002024
:1033D000100000200000004F10B546482DED088B6E
:1033E000A0F12404017832312181417828396181AA
:1033F00082781E32A281C1783239618003793C3BE8
:10340000643900EE101AA3804079B8EEC00AA0F526
:103410009670E08084ED040A00EE100AB8EEC00A4F
:1034200084ED060A00EE102AB8EEC00A84ED050A03
:103430009FED318B9FED32ABB0EE480AF0EE680A9B
:10344000B0EE4A1AF0EE6A1A01F06EFCB0EE409A45
:10345000F0EE609AB4F90A0004F0E5FC41EC100BC0
:10346000B0EE4A1AF0EE6A1A01F05EFCB0EE40BA15
:10347000F0EE60BAB4F9080004F0D5FC41EC100B92
:10348000B0EE4A1AF0EE6A1A01F04EFC53EC1B2B18
:1034900051EC100B04F01AFA53EC192B04F022FF34
:1034A00041EC100B02F068FA51EC100B04F0DCF95F
:1034B00000EE100ADFED140A10EE100A70EEC00ADA
:1034C000C4ED070A04F0F8FF41EC100BB0EE481A07
:1034D000F0EE681A01F090FA9FED0C1B51EC100B06
:1034E00053EC112B04F026FE04F0BEF92062BDEC73
:1034F000088B10BDE00100200000000000004940E2
:1035000000000000000000400000914338E92F5403
:10351000FB21F93F0021084600F06EBA0021084661
:1035200000F0A4BA0121002000F066BA01210020B9
:1035300000F09CBA0221012000F05EBA02210120B5
:1035400000F094BA0321012000F056BA03210120B3
:1035500000F08CBA0421022000F04EBA04210220AF
:1035600000F084BA0521032000F046BA05210320AB
:1035700000F07CBA07B582B000238DF80000BDF8DA
:103580000C00ADF80100BDF81000ADF803000D48C7
:103590005A1E6946006803F059FCBDF90C00BDF9DC
:1035A000101090FBF1F004F03EFC41EC100B01F028
:1035B00023FB01F0ADFB51EC100B04F007FC05B050
:1035C000C0B200BD0400002010B507490748FFF74E
:1035D00083FA0128F9D0BDE810404FF48072044905
:1035E0000248FFF765B80000515C0008E80A0020B7
:1035F000E14B002010B5044600780B46FF280AD1A5
:1036000060780E2807D10E22A11C1846FCF723FF74
:10361000207CAA2803D0BDE81040FDF706B810BDF5
:1036200010B50C4CFF2121700E2161700A46014635
:10363000A01CFCF710FFAA202074074C04E0112204
:1036400004490548FFF76CFA20680068C04340064B
:10365000F5D410BDD04A0020E80A00201FB5ADF80F
:1036600000006846FFF7DCFF1FBD00008AB00020A5
:10367000FFF7AAFF174D184E184FDFF86490E84681
:103680004FF0FF34224604A9286803F0EFFC01281C
:10369000F8D1694604A8FFF7ADFFBDF90000012885
:1036A0000DD0032810D00528ECD1D9F80000002354
:1036B000224608F1020100BF03F0C8FBE2E7002345
:1036C0001A4619463068F7E700231A461946386843
:1036D000F2E70000000000202C0000203000002055
:1036E00008000020024601280BD00F48022A10D003
:1036F000032A15D0042A16D1031501290CD0012262
:103700000BE00A48012902D00122012106E0002233
:10371000FBE74FF48053F0E700221946FDF737BD71
:103720004FF40063E9E7704700080240000C0240D4
:1037300001B5044800235A1E6946006803F086FB61
:1037400008BD00000C00002010B5054800232DED39
:10375000020B5A1E6946006803F078FB1CBD00008E
:103760001000002070B50D00094900EB400202EB8B
:10377000C00001EB800454F82C0C34F8281C01D054
:10378000002200E00122FDF702FD04F8045C70BD98
:10379000C00000202DE9F0410E4615468046002766
:1037A0000121FFF7DFFF08EB4801394801EBC801B1
:1037B00000EB810444E90365DDB354F8100CB0421A
:1037C00062D0002D00DA6D4200EE105A9FED311AE2
:1037D00054F81C1CF8EEC00A096881EE200AF7EEC6
:1037E000000A30EE600ABCEEC00A10EE100A80B289
:1037F000C86254F81C1CC86054F8181CF9B104299C
:1038000023D0082954F81C1C4FEA5000096822D024
:10381000C1F8400054F8100C0125B0421DDA34F80C
:10382000201C54F8240C2A46FDF7B1FC04F8035C74
:103830001FE0FFE70021404600F02EF824E054F896
:103840001C1C400809684863E4E754F81C1C400845
:1038500009688863DEE7C863DCE70ADD34F8201C0A
:1038600054F8240C4FF00002FDF791FCFF2004F8FF
:10387000030C74E90701FEF7EFFD06462068FEF72A
:1038800013F940EA060725723846BDE8F0810000CA
:10389000C00000200024744970B50D460446012183
:1038A000FFF760FF04EB440000EBC4013648002D35
:1038B00000EB810444F8085C0BDD34F8201C54F85C
:1038C000240C4FF00102FDF762FC012004F8030C08
:1038D0000CE03DDA34F8201C54F8240C4FF00002C0
:1038E000FDF755FCFF2004F8030C6D4200EE105A62
:1038F000DFED260A0220B8EEC00A04F8140C54F8D2
:103900001C1C80EE801AB7EE000A096831EE400AEE
:10391000BCEEC00A10EE100A80B2C86254F81C1C3B
:10392000C86054F8181C09B3042925D0082954F894
:103930001C1C4FEA5000096824D0086474E9070190
:10394000FEF78AFD05462068FEF7AEF8284370BDF5
:10395000002504F8145C04F8035C74E90701FEF721
:10396000DFFD2068FEF7E0F8284670BD54F81C1C07
:10397000400809684863E1E754F81C1C40080968DE
:103980008863DBE7C863D9E7C000002000247449DE
:1039900010B504460021FFF77FFF01212046FFF705
:1039A000E1FE04EB4401044A01EBC40102EB810196
:1039B000002041F8100C10BDC0000020012002F0D2
:1039C00061F9FBE770B50025094E2C4604EB440075
:1039D00000EBC40006EB8000064A00690E21FEF7EA
:1039E000E8FD2843641CE4B20546042CEED370BD08
:1039F000C000002001640008124A10B500EB40002E
:103A0000145C101F405C40B1012808D0022818D176
:103A10002046BDE81040FFF7BBBF00210CE0204668
:103A2000FDF7CCF8002801DD012001E04FF0FF3068
:103A30004FF6C01110FB01F12046BDE81040FFF722
:103A40002BBF10BDA60100202DE9F04F09AC94E872
:103A5000E01F054C2FC43046A4E8810364E809AB9D
:103A6000C4F82CC0BDE8F08F7001002070B50C4682
:103A70000E4900EB40000D1F0E5C285D012801D0AF
:103A8000002010E03046FDF799F8002801DD012004
:103A900001E04FF0FF304FF6C01110FB01F130464E
:103AA000FFF7FAFE0220285570BD0000A601002095
:103AB00010B5502080F31188BFF34F8FBFF36F8F85
:103AC00003F0D2FC18B104494FF080500860002088
:103AD00080F3118810BD000004ED00E030B593B014
:103AE00030216846FCF72EFD14210CA8FCF72AFDB6
:103AF0001D480025016841F080510160006800F018
:103B0000805011901948016841F4804101600068BB
:103B1000022400F4804011900120009000040190E4
:103B20008001CDE9064008AA0420A82182E81300FC
:103B30000B906846FDF7F8FC08B172B6FEE70CA9D9
:103B40000F2081E831004FF4A0500F904FF48050C7
:103B5000109005210CA8FDF7DDFB002801D072B6FE
:103B6000FEE713B030BD0000403802400070004056
:103B70000248016841F470010160704788ED00E07F
:103B80000148FEF750BA00001C0C00200148FEF767
:103B90004ABA0000B00600200148FEF744BA00000F
:103BA000640700200148FEF73EBA00001808002014
:103BB00010B50448FEF737FABDE810400248FEF79A
:103BC00032BA000080090020340A00200148FEF7C4
:103BD0002ABA000080090020F0B50268254C264D65
:103BE000264E274F274B4FF0804CA04209D060450E
:103BF00007D0A84205D0B04203D0B84201D09842C5
:103C000004D122F0700E4A6842EA0E02A0421BD094
:103C1000604519D0A84217D0B04215D0B84213D091
:103C2000984211D0184DA8420ED0184DA8420BD082
:103C3000174DA84208D0174DA84205D0164DA842EE
:103C400002D0164DA84203D122F44075CA682A4317
:103C50004D6922F080022A4302608A68C2620A68C3
:103C60008262A04201D0984201D109690163012119
:103C70004161F0BD00000140000400400008004028
:103C8000000C00400004014000400140004401409D
:103C90000048014000180040001C00400020004087
:103CA00010B501F01F030121046A99408C4304629E
:103CB000016A9A401143016210BD10B5846842EA5E
:103CC000032224F47F440A432243826010BD8268A9
:103CD00022F070020A4342F0070181607047000041
:103CE000F0B5026A22F001020262036A4268846946
:103CF000124E24F073050C682C4323F002058B68E8
:103D00002B430D4DA84201D0B04205D123F0080746
:103D1000CB683B4323F00403A84201D0B04205D155
:103D20004D6922F4407215438A692A4342608461D6
:103D3000496841630362F0BD000001400004014096
:103D4000F0B5026A22F010020262026A43688469D6
:103D50000D6824F4E64444EA05248D6822F020022C
:103D600042EA05120F4D104EA84201D0B04206D1D2
:103D7000CF6822F0800242EA071222F04002A842F5
:103D800001D0B04207D14D6923F4406343EA850373
:103D90008D6943EA850343608461496881630262F7
:103DA000F0BD00000000014000040140F0B5026ACF
:103DB00022F480720262026A4368C46922F40072CB
:103DC00024F073050C68124E2C438D6842EA0522DC
:103DD0000E4DA84201D0B04206D1CF6822F4006255
:103DE00042EA072222F48062A84201D0B04207D101
:103DF0004D6923F4405343EA05138D6943EA0513E3
:103E00004360C4614968C1630262F0BD00000140C3
:103E10000004014030B5026A22F480520262046A52
:103E20004268C3690D6823F4E64343EA05238D68BD
:103E300024F4005444EA0534084DA84202D0084D49
:103E4000A84204D14D6922F4804242EA85124260C0
:103E5000C36149680164046230BD00000000014094
:103E6000000401400D4940F8801F0D4941600D4993
:103E700081600D49C1600D4901610D4941610D49E4
:103E800081610D49C1610D4901620D4941620D49D0
:103E900081620D49C1620D49016370479D2500088B
:103EA000B1250008AD260008AF260008391C00081F
:103EB000F91C00087D22000855240008572400083A
:103EC000351C000897180008991800089518000874
:103ED00010B5036A046A24F001040462846924F0C2
:103EE000F00444EA021423F00A020A4384610262E5
:103EF00010BD000070B5046A24F0010404628469F6
:103F0000056A154EB04214D0B0F1804F11D0134E57
:103F1000B0420ED0124EB0420BD0124EB04208D07A
:103F2000114EB04205D0114EB04202D0104EB042F8
:103F300003D124F00304144301E044F001041A0700
:103F400024F0F00444EA126225F00A0301F00A01A9
:103F500019438261016270BD00000140000400400D
:103F600000080040000C00400004014000400140F7
:103F70000018004010B5036A23F010030362836940
:103F8000046A23F4704343EA023224F0A00343EAB4
:103F900001118261016210BD30B5046A24F0100481
:103FA00004628469056A24F4407444EA022222F41B
:103FB00070444FF6FF7202EA03322243A02425F038
:103FC000A00304EA011119438261016230BD0000BF
:103FD000F0EE400A10B59FED170AC0B101281BD0C2
:103FE00002281ED0032811D110EE900A04F064FAC2
:103FF00041EC100B9FED101B51EC100B53EC112BEF
:1040000003F020FD03F030FC00EE100A10BD9FED20
:104010000C1A80EE810A10BDBDEE000A20EE800A67
:1040200010BD10EE900A04F047FA41EC100B9FED22
:10403000051BE1E700000000D4FDB0E02339D53FC7
:10404000000096420AD7A3703D6A5F40806B002152
:10405000C185C184416D084770B5846B2068406993
:1040600094F83D10C0F3C0100025212904D118B1E7
:10407000E584204600F0A7F82068406994F83E10D7
:10408000C0F38010222904D118B1E585204600F044
:1040900073F8206C40F0100020642046616DBDE88C
:1040A000704008470146806B09680968C9052FD42C
:1040B0000021C18501680C3151E8002F22F4807283
:1040C00041E80023002BF5D10168143151E8002F9D
:1040D00022F0010241E80023002BF5D101681431E0
:1040E00051E8002F22F0400241E80023002BF5D1D7
:1040F000202180F83E10016B012909D101680C31A3
:1041000051E8002F22F0100241E80023002BF5D1E6
:10411000016B012901D0016D0847826E818D104726
:10412000806B016B012901D0C16C0847818D826EC3
:10413000490810470146806B09680968C90516D40B
:104140000021C1840168143151E8002F22F080025F
:1041500041E80023002BF5D101680C3151E8002F14
:1041600042F0400241E80023002BF5D17047816CFA
:104170000847806B416C084701680C3151E8002FFB
:1041800022F4907241E80023002BF5D1016814312C
:1041900051E8002F22F0010241E80023002BF5D165
:1041A000016B012909D101680C3151E8002F22F07F
:1041B000100241E80023002BF5D1202180F83E10A9
:1041C00000210163704701680C3151E8002F22F093
:1041D000C00241E80023002BF5D1202180F83D10DA
:1041E0007047000009494164094981640949C16473
:1041F0000949016509494165094981650949C1655F
:10420000094901660949816670470000AF2B000823
:10421000AD2B00081D2B00081B2B00080F270008E2
:10422000092700080D2700080B27000807270008AA
:1042300008B590F83E10222901D0022008BD8268FE
:104240004FF480539A4201D1016921B1816A9A42A7
:104250001BD04AB10AE00268816A5268C2F30802C0
:104260000A80816A891C08E0026972B1026852689A
:1042700002F07F020A70816A491C8162C18D491E69
:104280000904090CC18503D019E002685268F1E7FE
:104290000168CA6822F02002CA600168CA6822F474
:1042A0008072CA6001684A6922F001024A612021D5
:1042B00080F83E10016B012903D0016D8847002072
:1042C00008BD0021016301680C3151E8002F22F084
:1042D000100241E80023002BF5D101680A68D206DC
:1042E00002D50A6849680091826E818D9047E6E7A1
:1042F00070B5044600680169E26821F44051114339
:1043000001612169A068E2690843616911430843BA
:104310002168CA6849F20C639A430243CA60206864
:104320004169A26921F4407111434161314920681A
:10433000884202D03049884202D1FDF7B5F801E049
:10434000FDF7A2F8E2690023192164253226B2F5AF
:10435000004F626828D0A0FB0101930F9200FCF788
:1043600003F80146B0FBF5F06FF01802504301EB83
:10437000800006EB0010B0FBF5F000F0F002B1FB9E
:10438000F5F002EB0012B1FBF5F06FF018035843A3
:1043900001EB800006EB0010B0FBF5F000F00F0021
:1043A00021681044886070BDA0FB010192185B4138
:1043B000FBF7DAFF0146B0FBF5F00201B1FBF5F0C7
:1043C0006FF01803584301EB800006EBC000B0FB10
:1043D000F5F000F0F80002EB4002B1FBF5F05843B5
:1043E00001EB800006EBC000B0FBF5F000F0070029
:1043F000D6E70000001001400014014038B581628A
:1044000082850025134604460564222084F83E0078
:10441000A26B1C48D063A26B1B481064A26B1B48A4
:10442000D064A06B0A4605652168A06B091DFCF7E6
:1044300067FD206801684068009084F83C5020695E
:1044400048B120680C3050E8001F41F4807140E80A
:104450000012002AF5D12068143050E8001F41F006
:10446000010140E80012002AF5D12068143050E81C
:10447000001F41F0400140E80012002AF5D1002061
:1044800038BD0000A540000821410008594000083F
:104490000148FEF73DB90000E80A002010B50446C7
:1044A000007EB0B1032813D1A08B618B401A03F0BA
:1044B000BAFC9FED221B53EC112B03F007FD03F018
:1044C000D3F92062D4E90401FDF764FD00202076D1
:1044D00010BD2089012281B26068FCF758FE0120DE
:1044E00001F0D0FB2089002281B26068FCF74FFE0A
:1044F000606998B1042817D0082820690068016A0B
:1045000018D021F42041016220690068016A01622B
:10451000D4E90401FDF7B8FC0120D8E72069006860
:10452000016A21F00A01EEE720690068016A21F0C2
:10453000A001E8E721F42061E5E700009CC420B079
:104540007268913FFEE7000002484FF0FF310068BB
:1045500002F028BE3000002008B504484FF0FF32BA
:104560006946006802F082FD08BD00000C000020D2
:1045700008B504484FF0FF326946006802F076FD46
:1045800008BD00001000002002484FF0FF31006815
:1045900002F008BE2C00002070B50446808900257A
:1045A00081B20122A068FCF7F2FDA088002281B24E
:1045B0002068FCF7ECFD012001F0FEFAA08981B231
:1045C000A068FCF7DFFD0028F8D10026A0880122B2
:1045D00081B22068FCF7DBFD012001F0EDFAA08834
:1045E0006D0081B200222068FCF7D1FDA08981B264
:1045F000A068FCF7C7FD012800D16D1C012001F067
:10460000DBFA761CF6B2182EE0D3A088012281B224
:104610002068FCF7BCFD012001F0CEFAA088002242
:1046200081B22068FCF7B3FD45F31700206170BD2F
:1046300070B5074C0546207808B1002070BD0548CC
:104640000126267020C080E80E00001F70BD00000B
:10465000A1010020084D002008B50423184A80213C
:104660001848FFF7E5FF184C184D0427606018B193
:10467000FFF792FF606806697F1E17F0FF07F6D10B
:104680004FF0FF386FF0004760680028FCD0002230
:104690006946286802F0EAFC6068FFF77DFF606801
:1046A00000990069801B884206DD00234246694666
:1046B000286802F0CBFB0097642001F0E3FAE3E7FF
:1046C0000004024000100240B40100200C00002051
:1046D00003B401984100009850EAC12018BF04209B
:1046E0004A0D18BF40F0010040F2FF72B2EB515F7B
:1046F00008BF40F00200012808BF052002B0704743
:104700000907090E002804DB00F1E02080F80014FE
:10471000704700F00F0000F1E02080F8141D704792
:1047200070B59B482DED020B2DED068B079D25F0F6
:104730000044A04218DC9748844202DC0AD1069863
:1047400040B19DED060BBDEC068B02B0BDE870409C
:1047500001F0E6B9002DCCBF9FED8F0B9FED900BC4
:10476000BDEC068B02B070BD8F48A04215DD8F48AE
:10477000A042D8BF4FF0FF3458DD9DED060B51EC41
:10478000100BFFF7A5FF042808BF01F0FDF99DED10
:10479000060BBDEC068B02B070BD9DED060B51EC17
:1047A000100B01F027FACDE9060181489FED828BBD
:1047B000A0423CDD8248A0421FDD00249FED82AB79
:1047C0009DED060B53EC1A2B51EC100B03F07EF809
:1047D0009DED060B41EC190B53EC1A2B51EC100B11
:1047E00003F074FB53EC182B03F07CFD53EC192BF6
:1047F00003F028F9CDE9060149E09DED060B0124FF
:1048000053EC182B51EC100B03F060F89DED060BE8
:1048100041EC190B53EC182B51EC100B03F062FD1B
:1048200053EC192B03F00EF9CDE906012FE068488F
:10483000A0421FDD02249FED689B9DED060B53EC0B
:10484000192B51EC100B03F041FB53EC182B03F028
:104850003DF89DED060B41EC180B53EC192B51EC78
:10486000100B03F03FFD53EC182B03F0EBF8CDE9F0
:1048700006010CE09DED060B032453EC102B9FED7D
:10488000580B51EC100B03F0DDF8CDE906019DED5E
:10489000060B53EC102B51EC100B03F017FB41EC03
:1048A000180B53EC182B03F011FB41EC190B4E487D
:1048B0000621B0EE490AF0EE690A784401F099F851
:1048C00053EC182B51EC100B03F000FB41EC180BD0
:1048D0004648B0EE490AF0EE690A0521784401F035
:1048E00088F853EC192B51EC100B03F0EFFA41EC64
:1048F000100B51EC180B53EC102B002C0EDA02F0BD
:10490000E5FF9DED061B53EC112B03F0DFFA9DED47
:10491000061B53EC112B03F00DFC35E002F0D6FF23
:104920009DED061B53EC112B03F0D0FA41EC100B5C
:104930002F48784400EBC40090ED001B51EC100BA5
:1049400053EC112B03F0CEFC9DED061B53EC112B09
:1049500003F0C8FC41EC100B2648784400EBC4007F
:1049600090ED001B51EC100B53EC112B03F0E2FB0C
:1049700041EC100B002DA2BFBDEC068B02B070BD48
:1049800051EC100B02F064FF41EC100B01E700004A
:10499000000010440000F07F182D4454FB21F93F23
:1049A000182D4454FB21F9BF0000DC3F0000203EDD
:1049B0000000F33F00000000000000000000F03F96
:1049C0000000E63F00000000000000000000004082
:1049D0000080034000000000000000000000F83FDD
:1049E000000000000000F0BF9A3F0000503F0000B0
:1049F000DA3E0000923E000070B56F4E2DED040BC4
:104A00002DED048B82B0DDF824C0DDE907235C4284
:104A10002CF000411C4341EAD474069D22F0004072
:104A2000B44205D86C422C4340EAD474B4420BD94A
:104A30009DED081B9DED060B02B0BDEC048B04B090
:104A4000BDE8704001F076B8ACF14054A4F17F6449
:104A50001C430BD0022404EAAC7444EAD27405432C
:104A60009FED578B9FED582B07D015E09DED060B62
:104A700051EC100B01F098F842E0002C11BF012C12
:104A80009DED060B02B0BDEC048B04BF04B070BDFD
:104A9000022C38D0032C3BD00B439FED4D1B9FEDD8
:104AA0004E0B0AD0B14218D1B04209D121F0804159
:104AB00020F08040099107900FE0002A15DA10E0FD
:104AC000474B7B44002C08BF93ED000B0DD0012C0D
:104AD00010D0022C17D0032C1AD0B0421DD1002ABE
:104AE00003DAB0EE410AF0EE610A02B0BDEC048BCD
:104AF00004B070BD93ED000B51EC100B02F0A8FE5A
:104B000041EC100BF1E7B0EE480AF0EE680AECE772
:104B1000B0EE420AF0EE620AE7E7401A00159FED98
:104B2000329B3C28C8BF8DED000B17DCBCF1000F99
:104B3000BCBF10F13C0F8DED009B0FDB9DED080B12
:104B400053EC102B9DED060B51EC100B02F07AFF8D
:104B500001F050F801F028F8CDE90001B4B1012CC2
:104B600010D0022C9FED220B53EC102B9DED000B6F
:104B700051EC100B19D003F0B5FB53EC182B03F0DC
:104B8000B1FBBDE7019880F0004001909DED000B66
:104B900053EC192B51EC100B03F0ACF804BF0220BE
:104BA000FBF7FFFC9DED000B9FE703F09BFB53EC35
:104BB000182B03F0BFFAA3E70000F07F000000000D
:104BC000182D4454FB210940182D4454FB2109C0E1
:104BD000182D4454FB21F9BF182D4454FB21F93FF3
:104BE000C23D0000000000000000000000000000C6
:104BF000075C143326A6A13C2DE9F0412DED020BF4
:104C00009FED3D0B2DED028B9FED3D8BDDE90254B9
:104C1000C4F30A50A0F2FF36142E37DA002E18DA49
:104C200053EC102B9DED020B51EC100B02F04EFEDD
:104C300053EC182B03F048FA57D2002CBCBF4FF0AE
:104C40000044002551DB54EA050018BF2E4C1BD14F
:104C50004BE02E4820FA06F704EA070028431FD04D
:104C600053EC102B9DED020B51EC100B02F02EFEBD
:104C700053EC182B03F028FA37D2002C03DD4FF445
:104C80008010F0400444BC4300252EE0332E07DCA6
:104C9000A6F114004FF0FF3121FA00F73D4206D192
:104CA0009DED020BBDEC028B02B0BDE8F08153EC30
:104CB000102B9DED020B51EC100B03F03BFA53EC63
:104CC000182B03F001FA10D2002C0DDD142E08BFB2
:104CD000641C09D0C6F13400012101FA00F0284417
:104CE000A84238BF641C0546BD43CDE902549DED82
:104CF000020BD7E7000000009C7500883CE4377E7B
:104D000000000000000000000000F03FFFFF0F0067
:104D10002DED020B019820F0004001909DED000B5D
:104D200002B07047000000002DE9F04D2DED040B9E
:104D30002DED0E8B96B0DDE92550279CDDF890A077
:104D400025F0004624F00048BAF1000F14BF0121FD
:104D5000002101EB4502FC4953184A1093422AD323
:104D6000002814BF0123002303EB44030B44F7493D
:104D70008B4220D358EA00019FEDF59B76D0DFF8F7
:104D8000D8B35D4503D1BAF1000F05D188E0BAF17F
:104D9000000F08BF002100D0012101EB450111F5F2
:104DA000001F08D8002814BF0121002101EB440195
:104DB00011F5001F0BD99DED261B9DED240B16B0A0
:104DC000BDEC0E8B04B0BDE8F04D00F0B3BE002783
:104DD000002DBCBFE149884521DAE1498845A8BFDB
:104DE00002271CDAC3451ADCDE4901EB28511429DD
:104DF00008DDC1F1340220FA02F101FA02F2824226
:104E00000DD108E058B9C1F1140228FA02F101FAF3
:104E100002F2424503D101F00101C1F1020756EA55
:104E20000A0124D1002C22DA002D18BF022F01D054
:104E3000012F0AD00220FBF7B4FB16B0BDEC0E8B9D
:104E400004B0BDE8F04D00F053BE0220FBF7A9FB13
:104E500000F04EFE51EC100B02F0FAFC41EC100B8E
:104E600016B0BDEC0E8B04B0BDE8F08D18E09FEDE0
:104E7000BEAB9FEDBF8B002871D1B848804522D1D1
:104E800005F1804010F5801008BFBAF1000F07D07F
:104E9000B3450ADC002CA8BF9DED260BE0DA0DE03F
:104EA000B0EE490AF0EE690ADAE7002C06DA9DED69
:104EB000260B51EC100B02F0CBFC6FE0AE487844AF
:104EC00090ED000BCCE7D8454DD1002C48DA2EB13F
:104ED00086423AD1BAF1000F42D126E0BAF1000F72
:104EE00013D00220FBF75DFB00F03EFE8DED020BC0
:104EF0009DED240B8DED000B10EE900A039961F3EC
:104F00001E0003909DED020BAAE78DED02AB9DED17
:104F1000240B1AEE901A10EE900A8DED000B61F33F
:104F20001E0003909DED020B9AE78DED028B9DED27
:104F3000240B18EE901A10EE900A8DED000B61F321
:104F40001E0003909DED020B8AE709DA9DED240B0C
:104F500051EC190B53EC102B02F074FD1EE020E015
:104F60009DED240B7CE786421BDAB4F1804F0DD017
:104F7000A4F10050B0F1FF5013D1002D11DB9DEDD5
:104F8000240B51EC100B01F077FB07E09DED240B97
:104F900053EC102B51EC100B00F0C2BC41EC100B89
:104FA0005EE79DED240B51EC100B00F023FEBAF1EF
:104FB000000FCDE90E0142D19FED710B46B3A6F172
:104FC000E040B0F17F600CD05E4538D1002D00DAB2
:104FD000A7B3022F0CBF01204FF0FF3002F023FFD8
:104FE000DCE7002D01DD002C0DDA002D01DD002CA9
:104FF0001FDB002D16DA002C14DB012F08BF9FEDFC
:10500000620B3FF42DAFB0EE4A0AF0EE6A0A27E7D2
:10501000022F18BF002D0CD0012F0AD1002DFFF652
:105020001FAF06E0002DB8BF002C08DA012F3FF4B7
:1050300017AFB0EE480AF0EE680A11E71BE0012056
:1050400000EBE57050EA070115D0791EB0EE498AF1
:10505000F0EE698A084308BF9FED4D8B4E4800254E
:10506000804570DD4D494E48884514DDB0420DDB6A
:10507000002C19DB2FE00120FBF793FA16B0BDECF2
:105080000E8B04B0BDE8F04D00F05EBDB34502DC10
:10509000002C09DC1FE0864202DA002C1BDA03E058
:1050A0005E452BDD002C16DD0220FBF77AFA00F0BE
:1050B0005BFD8DED020B53EC1A2B51EC180B02F03B
:1050C00005FFCDE900010399019861F31E000390EB
:1050D0009DED020BC4E60220FBF763FA00F054FDDD
:1050E00010EE901A18EE900A8DED020B8DED008BEC
:1050F00061F31E0003909DED020BB1E69DED0E0BDA
:1051000053EC192B51EC100B03F0ECF89FED260B30
:10511000CDE9080153EC102B9DED080B51EC100B61
:1051200002F0D4FE9FED221B53EC112B03F002F88A
:105130009DED081B53EC112B02F0C8FE9FED1E1BCA
:1051400053EC112B3CE08CE0FFFF1F00FFFF0F0032
:10515000000000000000F03F0000F03F0000F07F82
:105160000000404301FCFFFF000000000000F07F52
:105170000000000000000000C63900000000000030
:105180000000000000000080000000000000F0FFB0
:10519000000000000000F0BF0000E0410000F0430C
:1051A000FFFFEF3F00000000000000000000D03FC4
:1051B000555555555555D53F000000000000E03FBE
:1051C00002F0B8FF9DED080B41EC1A0B53EC102BCD
:1051D00051EC100B02F07AFE53EC1A2B02F076FE23
:1051E00041EC1A0B9FEDFE0B53EC102B9DED080BC1
:1051F00051EC100B02F06AFE41EC1B0B9FEDFA0B19
:1052000051EC1A0B53EC102B02F060FE41EC1A0B20
:105210009FEDF70B53EC102B9DED080B51EC100B91
:1052200002F054FE53EC1A2B03F05CF841EC1A0B1D
:1052300051EC1B0B53EC1A2B02F048FB0690CDE906
:1052400006519DED060B53EC1B2B51EC100B03F09C
:1052500049F853EC1A2B02F06DFF41EC100B00F0F3
:10526000A1B90020B6F5801F0EDA9FEDE30B53ECD9
:10527000102B9DED0E0B51EC100B02F027FECDE92B
:105280000E016FF034000E4600EB2650A0F2FF37FF
:10529000C6F31300DA4940F07F6646F04056884274
:1052A000D8BF002408DDD7498142C8BF012403DCF0
:1052B0000024A6F580167F1CD348784400EBC40078
:1052C0000F9690ED00CB9DED0E0B53EC1C2B51EC8B
:1052D000100B03F007F89DED0E0B41EC1B0B53EC8C
:1052E0001C2B51EC100B02F0F1FA41EC100B51ECBD
:1052F000190B53EC102B02F0A5FB41EC1D0B51ECEC
:105300001B0B53EC1D2B02F0E1FD41EC1A0BBF48C7
:105310008DED10AB7844109590ED000B4FF00050E0
:1053200040EA660000EB84408DED080B00F500209C
:1053300009909DED080B53EC1C2B51EC100B02F067
:10534000D1FF9DED0E1B53EC112B02F0F3FE41EC4F
:10535000100B53EC102B9DED100B51EC100B02F0C9
:10536000B5FD9DED080B41EC1C0B53EC102B9DED96
:10537000100B51EC100B02F0A9FD53EC1B2B02F0AB
:10538000D9FE53EC1C2B02F0ADFF53EC1D2B02F0A9
:105390009DFD41EC1C0B53EC1A2B51EC1A0B02F047
:1053A00095FD41EC1B0B9A480621B0EE4B0AF0EE3E
:1053B0006B0A784400F01DFBB0EE401AF0EE601A64
:1053C000B0EE41DAF0EE61DA53EC1B2B51EC1B0B23
:1053D00002F07CFD53EC1D2B02F078FD9DED100BCF
:1053E00041EC1B0B53EC1A2B51EC100B02F06EFA34
:1053F00053EC1C2B02F06AFD53EC1B2B02F066FAF7
:105400009DED100B41EC1B0B53EC102B51EC100BD2
:1054100002F05CFD41EC1D0B9FED7FEB53EC1E2B6E
:1054200002F054FA53EC1B2B02F050FA0890CDE92D
:1054300008519DED080B53EC1E2B51EC100B02F0A4
:1054400051FF53EC1D2B02F04DFF53EC1B2B02F0D0
:1054500071FE9DED080B41EC1D0B53EC102B9DEDE7
:10546000100B51EC100B02F031FD41EC1B0B53EC17
:105470001A2B51EC1D0B02F029FD9DED080B41ECA0
:105480001A0B53EC102B51EC1C0B02F01FFD53ECCC
:105490001A2B02F01BFA41EC1A0B51EC1B0B53ECCC
:1054A0001A2B02F013FA0C90CDE90C519DED0C0B68
:1054B00053EC1B2B51EC100B02F014FF53EC1A2B86
:1054C00002F038FE41EC1B0B9FED550B53EC102BFB
:1054D0009DED0C0B51EC100B02F0F8FC41EC1A0B9B
:1054E0009FED510B51EC1B0B53EC102B02F0EEFC1B
:1054F00041EC1B0B9FED4E0B53EC102B9DED0C0B59
:1055000051EC100B02F0E2FC53EC1B2B02F0DEF925
:1055100041EC100B4848784400EBC40090ED001BB0
:1055200051EC100B53EC112B02F0D0F941EC1B0B9A
:10553000384602F078FCCDE9080153EC1B2B51EC06
:105540001A0B02F0C3F941EC100B3C48784400EB15
:10555000C40090ED00CB51EC100B53EC1C2B02F06F
:10556000B5F99DED081B53EC112B02F0AFF9069035
:10557000CDE906519DED080B53EC102B9DED060B6C
:1055800051EC100B02F0AEFE53EC1C2B02F0AAFE05
:1055900053EC1A2B02F0A6FE53EC1B2B02F0CAFDB3
:1055A00041EC100B9DED261B53EC102B8DED001BD9
:1055B00000959DED260B51EC100B02F087FC9DED44
:1055C000000B41EC1A0B53EC102B9DED260B51EC0C
:1055D000100B02F087FE9DED061B53EC112B2FE004
:1055E000000000604715F73FFE822B654715F73F27
:1055F00044DF5DF80BAE543E000000000000404365
:105600008E9803007AB60B00AA34000070350000B3
:10561000E23300000000000000000000000008402D
:10562000000000E009C7EE3FFD033ADC09C7EE3F8A
:10563000F5015B14E02F3EBE6E3200002832000000
:1056400002F044FC53EC1A2B02F040F99DED060BDE
:1056500041EC1A0B53EC102B9DED000B51EC100B91
:1056600002F034FCCDE90C019DED0C0B51EC1A0B52
:1056700053EC102B02F02AF9CDE902010C46AA499D
:105680008C422FDB611A084318D19DED0C0B53ECB3
:10569000102B9DED020B51EC100B02F023FE41ECA0
:1056A0001B0B9FEDA30B51EC1A0B53EC102B02F0CC
:1056B0000DF953EC1B2B02F007FD2DD20220FAF757
:1056C00070FF00F051FA10EE901A18EE900A8DED6E
:1056D000020B8DED008B61F31E0003909DED020B1C
:1056E000FFF7BEBB944A24F00041914214D3934982
:1056F000214408437FF4EFAC9DED0C0B53EC102BD1
:105700009DED020B51EC100B02F0ECFD53EC1A2B4B
:1057100002F0DAFC7FF6DFAC24F000408849894AC9
:10572000002601EB205182422BDA481C4FF48011F5
:1057300021FA00F02044844AC0F30A517A44A1F2CD
:10574000FF3192ED000B814A8DED080BCA4020EA33
:105750000202C0F3130040F48010C1F1140120FADA
:1057600001F60992002CB8BF76429DED080B53EC70
:10577000102B9DED0C0B51EC100B02F0B3FDCDE99D
:105780000C019DED0C0B51EC1A0B53EC102B02F09D
:105790009DF89FED6F0B0890CDE9085153EC102B4D
:1057A0009DED080B51EC100B02F090FB41EC1B0B34
:1057B0009FED690B53EC102B9DED080B51EC100B7A
:1057C00002F084FB9DED0C0B41EC1C0B53EC102BF9
:1057D0009DED080B51EC100B02F084FD53EC1A2BDD
:1057E00002F0A8FC9FED5E1B53EC112B02F06EFB48
:1057F00053EC1C2B02F06AF841EC1A0B51EC1B0B1A
:1058000053EC1A2B02F062F8CDE902019DED020B78
:1058100053EC1B2B51EC100B02F064FD53EC1A2BD4
:1058200002F088FC9DED020B41EC1A0B53EC102B9F
:1058300051EC100B02F04AFBCDE908014A489DEDFE
:10584000080B0521784400F0D4F89DED081B51ECBD
:10585000100B53EC112B02F039FB9DED021B53ECA6
:10586000112B02F067FCCDE906019DED020B53EC14
:105870001A2B51EC100B02F029FB53EC1A2B02F0FF
:1058800025F89FED3B0B41EC1A0B53EC102B9DEDD3
:10589000060B51EC100B02F025FD9DED060B41ECC3
:1058A0001B0B53EC102B9DED020B51EC100B02F077
:1058B0000DFB53EC1B2B02F0C5F853EC1A2B02F036
:1058C00011FD9DED021B53EC112B02F00BFD53EC6F
:1058D000192B02F02FFCCDE9020101EB0650011556
:1058E0000029C8BF039015DC9DED020B324651EC38
:1058F000100B02F08EFEFEF7EBFE042808BF00F04E
:1059000043F932469DED020B51EC100B02F081FE83
:10591000CDE902019DED020B51EC180B53EC102B5D
:1059200002F0D4FAFFF73ABB0000904000000000FC
:10593000FE822B654715973C00CC904000346F3FAA
:1059400001FCFFFF0000E03F48310000FFFF0F00B7
:1059500000000000432EE63F396CA80C615C20BEBD
:10596000EF39FAFE422EE63F802F000000000000D3
:10597000000000000000004000B52DED048BB0EEEB
:10598000409AF0EE609A83B051EC190B02F0DEFB06
:1059900041EC180B18EE100A18EE901A8DED008BE2
:1059A000002818BF0120084320F00040C0F17F60AC
:1059B00000F1E040C00F14D019EE101A19EE900A51
:1059C0008DED009B002918BF0121084320F0004005
:1059D000C0F17F6000F1E040C00F04BF0120FAF782
:1059E000E0FDB0EE480A03B0F0EE680ABDEC048BAF
:1059F00000BD70B504462DED028B4D1E00EBC500B9
:105A0000B0EE408AF0EE608A90ED000B35F00600B3
:105A100017D053EC182B51EC100B02F057FA41EC55
:105A2000100B6D1E04EBC50090ED001B51EC100B2C
:105A300053EC112B01F04AFF41EC100B35F006003E
:105A4000E7D1022D36D0042D1CD0062D1CBFBDEC95
:105A5000028B70BD53EC182B51EC100B02F036FA90
:105A600094ED0A1B53EC112B01F030FF53EC182B73
:105A700002F02CFA94ED081B53EC112B01F026FFD9
:105A800041EC100B53EC182B51EC100B02F01EFAEA
:105A900094ED061B53EC112B01F018FF53EC182B5F
:105AA00002F014FA94ED040B53EC102B01F00EFFEE
:105AB00041EC100B53EC182B51EC100B02F006FAD2
:105AC00094ED021B53EC112B01F000FF53EC182B4B
:105AD00002F0FCF994ED001B53EC112B01F0F6FEE3
